{
  "_format": "hh-sol-artifact-1",
  "contractName": "Borantia",
  "sourceName": "contracts/Borantia.sol",
  "abi": [
    {
      "inputs": [],
      "stateMutability": "nonpayable",
      "type": "constructor"
    },
    {
      "anonymous": false,
      "inputs": [
        {
          "indexed": true,
          "internalType": "address",
          "name": "account",
          "type": "address"
        },
        {
          "indexed": true,
          "internalType": "address",
          "name": "operator",
          "type": "address"
        },
        {
          "indexed": false,
          "internalType": "bool",
          "name": "approved",
          "type": "bool"
        }
      ],
      "name": "ApprovalForAll",
      "type": "event"
    },
    {
      "anonymous": false,
      "inputs": [
        {
          "indexed": false,
          "internalType": "uint8",
          "name": "version",
          "type": "uint8"
        }
      ],
      "name": "Initialized",
      "type": "event"
    },
    {
      "anonymous": false,
      "inputs": [
        {
          "indexed": true,
          "internalType": "address",
          "name": "previousOwner",
          "type": "address"
        },
        {
          "indexed": true,
          "internalType": "address",
          "name": "newOwner",
          "type": "address"
        }
      ],
      "name": "OwnershipTransferred",
      "type": "event"
    },
    {
      "anonymous": false,
      "inputs": [
        {
          "indexed": false,
          "internalType": "address",
          "name": "account",
          "type": "address"
        }
      ],
      "name": "Paused",
      "type": "event"
    },
    {
      "anonymous": false,
      "inputs": [
        {
          "indexed": true,
          "internalType": "address",
          "name": "operator",
          "type": "address"
        },
        {
          "indexed": true,
          "internalType": "address",
          "name": "from",
          "type": "address"
        },
        {
          "indexed": true,
          "internalType": "address",
          "name": "to",
          "type": "address"
        },
        {
          "indexed": false,
          "internalType": "uint256[]",
          "name": "ids",
          "type": "uint256[]"
        },
        {
          "indexed": false,
          "internalType": "uint256[]",
          "name": "values",
          "type": "uint256[]"
        }
      ],
      "name": "TransferBatch",
      "type": "event"
    },
    {
      "anonymous": false,
      "inputs": [
        {
          "indexed": true,
          "internalType": "address",
          "name": "operator",
          "type": "address"
        },
        {
          "indexed": true,
          "internalType": "address",
          "name": "from",
          "type": "address"
        },
        {
          "indexed": true,
          "internalType": "address",
          "name": "to",
          "type": "address"
        },
        {
          "indexed": false,
          "internalType": "uint256",
          "name": "id",
          "type": "uint256"
        },
        {
          "indexed": false,
          "internalType": "uint256",
          "name": "value",
          "type": "uint256"
        }
      ],
      "name": "TransferSingle",
      "type": "event"
    },
    {
      "anonymous": false,
      "inputs": [
        {
          "indexed": false,
          "internalType": "string",
          "name": "value",
          "type": "string"
        },
        {
          "indexed": true,
          "internalType": "uint256",
          "name": "id",
          "type": "uint256"
        }
      ],
      "name": "URI",
      "type": "event"
    },
    {
      "anonymous": false,
      "inputs": [
        {
          "indexed": false,
          "internalType": "address",
          "name": "account",
          "type": "address"
        }
      ],
      "name": "Unpaused",
      "type": "event"
    },
    {
      "inputs": [
        {
          "internalType": "uint256",
          "name": "id",
          "type": "uint256"
        },
        {
          "internalType": "address",
          "name": "addr",
          "type": "address"
        }
      ],
      "name": "addVolunteer",
      "outputs": [],
      "stateMutability": "nonpayable",
      "type": "function"
    },
    {
      "inputs": [
        {
          "internalType": "address",
          "name": "account",
          "type": "address"
        },
        {
          "internalType": "uint256",
          "name": "id",
          "type": "uint256"
        }
      ],
      "name": "balanceOf",
      "outputs": [
        {
          "internalType": "uint256",
          "name": "",
          "type": "uint256"
        }
      ],
      "stateMutability": "view",
      "type": "function"
    },
    {
      "inputs": [
        {
          "internalType": "address[]",
          "name": "accounts",
          "type": "address[]"
        },
        {
          "internalType": "uint256[]",
          "name": "ids",
          "type": "uint256[]"
        }
      ],
      "name": "balanceOfBatch",
      "outputs": [
        {
          "internalType": "uint256[]",
          "name": "",
          "type": "uint256[]"
        }
      ],
      "stateMutability": "view",
      "type": "function"
    },
    {
      "inputs": [
        {
          "internalType": "uint256",
          "name": "id",
          "type": "uint256"
        },
        {
          "internalType": "address",
          "name": "claimee",
          "type": "address"
        },
        {
          "internalType": "uint256",
          "name": "h",
          "type": "uint256"
        }
      ],
      "name": "claimBorantia",
      "outputs": [],
      "stateMutability": "nonpayable",
      "type": "function"
    },
    {
      "inputs": [
        {
          "internalType": "uint256",
          "name": "tokenId",
          "type": "uint256"
        }
      ],
      "name": "getMetadata",
      "outputs": [
        {
          "components": [
            {
              "internalType": "string",
              "name": "title",
              "type": "string"
            },
            {
              "internalType": "string",
              "name": "organization",
              "type": "string"
            },
            {
              "internalType": "string",
              "name": "description",
              "type": "string"
            },
            {
              "internalType": "string",
              "name": "imageUrl",
              "type": "string"
            },
            {
              "internalType": "uint256",
              "name": "eventDate",
              "type": "uint256"
            },
            {
              "internalType": "address",
              "name": "creator",
              "type": "address"
            }
          ],
          "internalType": "struct Borantia.BorantiaMetadata",
          "name": "",
          "type": "tuple"
        }
      ],
      "stateMutability": "view",
      "type": "function"
    },
    {
      "inputs": [
        {
          "internalType": "uint256",
          "name": "tokenId",
          "type": "uint256"
        }
      ],
      "name": "getVolunteerList",
      "outputs": [
        {
          "internalType": "address[]",
          "name": "",
          "type": "address[]"
        }
      ],
      "stateMutability": "view",
      "type": "function"
    },
    {
      "inputs": [
        {
          "internalType": "address",
          "name": "account",
          "type": "address"
        },
        {
          "internalType": "address",
          "name": "operator",
          "type": "address"
        }
      ],
      "name": "isApprovedForAll",
      "outputs": [
        {
          "internalType": "bool",
          "name": "",
          "type": "bool"
        }
      ],
      "stateMutability": "view",
      "type": "function"
    },
    {
      "inputs": [],
      "name": "latestUnusedTokenId",
      "outputs": [
        {
          "internalType": "uint256",
          "name": "",
          "type": "uint256"
        }
      ],
      "stateMutability": "view",
      "type": "function"
    },
    {
      "inputs": [],
      "name": "owner",
      "outputs": [
        {
          "internalType": "address",
          "name": "",
          "type": "address"
        }
      ],
      "stateMutability": "view",
      "type": "function"
    },
    {
      "inputs": [],
      "name": "pause",
      "outputs": [],
      "stateMutability": "nonpayable",
      "type": "function"
    },
    {
      "inputs": [],
      "name": "paused",
      "outputs": [
        {
          "internalType": "bool",
          "name": "",
          "type": "bool"
        }
      ],
      "stateMutability": "view",
      "type": "function"
    },
    {
      "inputs": [
        {
          "internalType": "address",
          "name": "creator",
          "type": "address"
        },
        {
          "components": [
            {
              "internalType": "string",
              "name": "title",
              "type": "string"
            },
            {
              "internalType": "string",
              "name": "organization",
              "type": "string"
            },
            {
              "internalType": "string",
              "name": "description",
              "type": "string"
            },
            {
              "internalType": "string",
              "name": "imageUrl",
              "type": "string"
            },
            {
              "internalType": "uint256",
              "name": "eventDate",
              "type": "uint256"
            }
          ],
          "internalType": "struct Borantia.BorantiaInputData",
          "name": "metadata",
          "type": "tuple"
        }
      ],
      "name": "registerBorantia",
      "outputs": [],
      "stateMutability": "nonpayable",
      "type": "function"
    },
    {
      "inputs": [],
      "name": "renounceOwnership",
      "outputs": [],
      "stateMutability": "nonpayable",
      "type": "function"
    },
    {
      "inputs": [
        {
          "internalType": "address",
          "name": "from",
          "type": "address"
        },
        {
          "internalType": "address",
          "name": "to",
          "type": "address"
        },
        {
          "internalType": "uint256[]",
          "name": "ids",
          "type": "uint256[]"
        },
        {
          "internalType": "uint256[]",
          "name": "amounts",
          "type": "uint256[]"
        },
        {
          "internalType": "bytes",
          "name": "data",
          "type": "bytes"
        }
      ],
      "name": "safeBatchTransferFrom",
      "outputs": [],
      "stateMutability": "nonpayable",
      "type": "function"
    },
    {
      "inputs": [
        {
          "internalType": "address",
          "name": "from",
          "type": "address"
        },
        {
          "internalType": "address",
          "name": "to",
          "type": "address"
        },
        {
          "internalType": "uint256",
          "name": "id",
          "type": "uint256"
        },
        {
          "internalType": "uint256",
          "name": "amount",
          "type": "uint256"
        },
        {
          "internalType": "bytes",
          "name": "data",
          "type": "bytes"
        }
      ],
      "name": "safeTransferFrom",
      "outputs": [],
      "stateMutability": "nonpayable",
      "type": "function"
    },
    {
      "inputs": [
        {
          "internalType": "address",
          "name": "operator",
          "type": "address"
        },
        {
          "internalType": "bool",
          "name": "approved",
          "type": "bool"
        }
      ],
      "name": "setApprovalForAll",
      "outputs": [],
      "stateMutability": "nonpayable",
      "type": "function"
    },
    {
      "inputs": [
        {
          "internalType": "uint256",
          "name": "_latestUnusedTokenId",
          "type": "uint256"
        }
      ],
      "name": "setLatestUnusedTokenId",
      "outputs": [],
      "stateMutability": "nonpayable",
      "type": "function"
    },
    {
      "inputs": [
        {
          "internalType": "string",
          "name": "_uri",
          "type": "string"
        }
      ],
      "name": "setURI",
      "outputs": [],
      "stateMutability": "nonpayable",
      "type": "function"
    },
    {
      "inputs": [
        {
          "internalType": "bytes4",
          "name": "interfaceId",
          "type": "bytes4"
        }
      ],
      "name": "supportsInterface",
      "outputs": [
        {
          "internalType": "bool",
          "name": "",
          "type": "bool"
        }
      ],
      "stateMutability": "view",
      "type": "function"
    },
    {
      "inputs": [
        {
          "internalType": "uint256",
          "name": "",
          "type": "uint256"
        }
      ],
      "name": "tokenIdToMetadata",
      "outputs": [
        {
          "internalType": "string",
          "name": "title",
          "type": "string"
        },
        {
          "internalType": "string",
          "name": "organization",
          "type": "string"
        },
        {
          "internalType": "string",
          "name": "description",
          "type": "string"
        },
        {
          "internalType": "string",
          "name": "imageUrl",
          "type": "string"
        },
        {
          "internalType": "uint256",
          "name": "eventDate",
          "type": "uint256"
        },
        {
          "internalType": "address",
          "name": "creator",
          "type": "address"
        }
      ],
      "stateMutability": "view",
      "type": "function"
    },
    {
      "inputs": [
        {
          "internalType": "uint256",
          "name": "",
          "type": "uint256"
        },
        {
          "internalType": "uint256",
          "name": "",
          "type": "uint256"
        }
      ],
      "name": "tokenIdToVolunteers",
      "outputs": [
        {
          "internalType": "address",
          "name": "",
          "type": "address"
        }
      ],
      "stateMutability": "view",
      "type": "function"
    },
    {
      "inputs": [
        {
          "internalType": "address",
          "name": "newOwner",
          "type": "address"
        }
      ],
      "name": "transferOwnership",
      "outputs": [],
      "stateMutability": "nonpayable",
      "type": "function"
    },
    {
      "inputs": [],
      "name": "unpause",
      "outputs": [],
      "stateMutability": "nonpayable",
      "type": "function"
    },
    {
      "inputs": [
        {
          "internalType": "uint256",
          "name": "",
          "type": "uint256"
        }
      ],
      "name": "uri",
      "outputs": [
        {
          "internalType": "string",
          "name": "",
          "type": "string"
        }
      ],
      "stateMutability": "view",
      "type": "function"
    }
  ],
  "bytecode": "0x60806040523480156200001157600080fd5b506040518060400160405280601281526020017f6d657461646174612f7b69647d2e6a736f6e0000000000000000000000000000815250620000686200005c620000a260201b60201c565b620000aa60201b60201c565b60008060166101000a81548160ff02191690831515021790555062000093816200016f60201b60201c565b506001600681905550620002a0565b600033905090565b60008060029054906101000a900473ffffffffffffffffffffffffffffffffffffffff16905081600060026101000a81548173ffffffffffffffffffffffffffffffffffffffff021916908373ffffffffffffffffffffffffffffffffffffffff1602179055508173ffffffffffffffffffffffffffffffffffffffff168173ffffffffffffffffffffffffffffffffffffffff167f8be0079c531659141344cd1fd0a4f28419497f9722a3daafe3b4186f6b6457e060405160405180910390a35050565b8060039080519060200190620001879291906200018b565b5050565b82805462000199906200023b565b90600052602060002090601f016020900481019282620001bd576000855562000209565b82601f10620001d857805160ff191683800117855562000209565b8280016001018555821562000209579182015b8281111562000208578251825591602001919060010190620001eb565b5b5090506200021891906200021c565b5090565b5b80821115620002375760008160009055506001016200021d565b5090565b600060028204905060018216806200025457607f821691505b602082108114156200026b576200026a62000271565b5b50919050565b7f4e487b7100000000000000000000000000000000000000000000000000000000600052602260045260246000fd5b61450e80620002b06000396000f3fe608060405234801561001057600080fd5b50600436106101575760003560e01c8063884ae68d116100c3578063a574cea41161007c578063a574cea41461039c578063ac152b29146103cc578063bf64db1d146103e8578063e985e9c51461041d578063f242432a1461044d578063f2fde38b1461046957610157565b8063884ae68d146102f05780638da5cb5b1461030c5780638e42e0a21461032a5780639b3b63b6146103465780639eeff04414610364578063a22cb4651461038057610157565b80632eb2c2d6116101155780632eb2c2d6146102685780633f4ba83a146102845780634e1273f41461028e5780635c975abb146102be578063715018a6146102dc5780638456cb59146102e657610157565b8062fdd58e1461015c57806301ffc9a71461018c57806302fe5305146101bc578063031ba440146101d85780630e89341c14610208578063272a472e14610238575b600080fd5b61017660048036038101906101719190613088565b610485565b6040516101839190613b54565b60405180910390f35b6101a660048036038101906101a19190613130565b61054f565b6040516101b39190613898565b60405180910390f35b6101d660048036038101906101d19190613182565b610631565b005b6101f260048036038101906101ed91906131c3565b610701565b6040516101ff919061381d565b60405180910390f35b610222600480360381019061021d91906131c3565b6107a2565b60405161022f91906138b3565b60405180910390f35b610252600480360381019061024d9190613277565b610836565b60405161025f9190613740565b60405180910390f35b610282600480360381019061027d9190612eaa565b610884565b005b61028c610925565b005b6102a860048036038101906102a391906130c4565b6109ab565b6040516102b5919061383f565b60405180910390f35b6102c6610b5c565b6040516102d39190613898565b60405180910390f35b6102e4610b72565b005b6102ee610bfa565b005b61030a600480360381019061030591906131ec565b610c80565b005b610314610d40565b6040516103219190613740565b60405180910390f35b610344600480360381019061033f9190613228565b610d69565b005b61034e610dc1565b60405161035b9190613b54565b60405180910390f35b61037e600480360381019061037991906131c3565b610dc7565b005b61039a60048036038101906103959190612ff8565b610e94565b005b6103b660048036038101906103b191906131c3565b610eaa565b6040516103c39190613b32565b60405180910390f35b6103e660048036038101906103e19190613034565b61117f565b005b61040260048036038101906103fd91906131c3565b6111d5565b604051610414969594939291906138d5565b60405180910390f35b61043760048036038101906104329190612e6e565b611451565b6040516104449190613898565b60405180910390f35b61046760048036038101906104629190612f69565b6114e5565b005b610483600480360381019061047e9190612e45565b611586565b005b60008073ffffffffffffffffffffffffffffffffffffffff168373ffffffffffffffffffffffffffffffffffffffff1614156104f6576040517f08c379a00000000000000000000000000000000000000000000000000000000081526004016104ed906139b2565b60405180910390fd5b6001600083815260200190815260200160002060008473ffffffffffffffffffffffffffffffffffffffff1673ffffffffffffffffffffffffffffffffffffffff16815260200190815260200160002054905092915050565b60007fd9b67a26000000000000000000000000000000000000000000000000000000007bffffffffffffffffffffffffffffffffffffffffffffffffffffffff1916827bffffffffffffffffffffffffffffffffffffffffffffffffffffffff1916148061061a57507f0e89341c000000000000000000000000000000000000000000000000000000007bffffffffffffffffffffffffffffffffffffffffffffffffffffffff1916827bffffffffffffffffffffffffffffffffffffffffffffffffffffffff1916145b8061062a57506106298261167e565b5b9050919050565b6106396116e8565b73ffffffffffffffffffffffffffffffffffffffff16610657610d40565b73ffffffffffffffffffffffffffffffffffffffff16146106ad576040517f08c379a00000000000000000000000000000000000000000000000000000000081526004016106a490613a92565b60405180910390fd5b6106b5610b5c565b156106f5576040517f08c379a00000000000000000000000000000000000000000000000000000000081526004016106ec90613a12565b60405180910390fd5b6106fe816116f0565b50565b60606004600083815260200190815260200160002080548060200260200160405190810160405280929190818152602001828054801561079657602002820191906000526020600020905b8160009054906101000a900473ffffffffffffffffffffffffffffffffffffffff1673ffffffffffffffffffffffffffffffffffffffff168152602001906001019080831161074c575b50505050509050919050565b6060600380546107b190613e3e565b80601f01602080910402602001604051908101604052809291908181526020018280546107dd90613e3e565b801561082a5780601f106107ff5761010080835404028352916020019161082a565b820191906000526020600020905b81548152906001019060200180831161080d57829003601f168201915b50505050509050919050565b6004602052816000526040600020818154811061085257600080fd5b906000526020600020016000915091509054906101000a900473ffffffffffffffffffffffffffffffffffffffff1681565b61088c6116e8565b73ffffffffffffffffffffffffffffffffffffffff168573ffffffffffffffffffffffffffffffffffffffff1614806108d257506108d1856108cc6116e8565b611451565b5b610911576040517f08c379a000000000000000000000000000000000000000000000000000000000815260040161090890613a52565b60405180910390fd5b61091e858585858561170a565b5050505050565b61092d6116e8565b73ffffffffffffffffffffffffffffffffffffffff1661094b610d40565b73ffffffffffffffffffffffffffffffffffffffff16146109a1576040517f08c379a000000000000000000000000000000000000000000000000000000000815260040161099890613a92565b60405180910390fd5b6109a9611a7b565b565b606081518351146109f1576040517f08c379a00000000000000000000000000000000000000000000000000000000081526004016109e890613ad2565b60405180910390fd5b6000835167ffffffffffffffff811115610a34577f4e487b7100000000000000000000000000000000000000000000000000000000600052604160045260246000fd5b604051908082528060200260200182016040528015610a625781602001602082028036833780820191505090505b50905060005b8451811015610b5157610afb858281518110610aad577f4e487b7100000000000000000000000000000000000000000000000000000000600052603260045260246000fd5b6020026020010151858381518110610aee577f4e487b7100000000000000000000000000000000000000000000000000000000600052603260045260246000fd5b6020026020010151610485565b828281518110610b34577f4e487b7100000000000000000000000000000000000000000000000000000000600052603260045260246000fd5b60200260200101818152505080610b4a90613ea1565b9050610a68565b508091505092915050565b60008060169054906101000a900460ff16905090565b610b7a6116e8565b73ffffffffffffffffffffffffffffffffffffffff16610b98610d40565b73ffffffffffffffffffffffffffffffffffffffff1614610bee576040517f08c379a0000000000000000000000000000000000000000000000000000000008152600401610be590613a92565b60405180910390fd5b610bf86000611b1c565b565b610c026116e8565b73ffffffffffffffffffffffffffffffffffffffff16610c20610d40565b73ffffffffffffffffffffffffffffffffffffffff1614610c76576040517f08c379a0000000000000000000000000000000000000000000000000000000008152600401610c6d90613a92565b60405180910390fd5b610c7e611be1565b565b610c88610b5c565b15610cc8576040517f08c379a0000000000000000000000000000000000000000000000000000000008152600401610cbf90613a12565b60405180910390fd5b60046000838152602001908152602001600020819080600181540180825580915050600190039060005260206000200160009091909190916101000a81548173ffffffffffffffffffffffffffffffffffffffff021916908373ffffffffffffffffffffffffffffffffffffffff1602179055505050565b60008060029054906101000a900473ffffffffffffffffffffffffffffffffffffffff16905090565b610d71610b5c565b15610db1576040517f08c379a0000000000000000000000000000000000000000000000000000000008152600401610da890613a12565b60405180910390fd5b610dbc838383611c84565b505050565b60065481565b610dcf6116e8565b73ffffffffffffffffffffffffffffffffffffffff16610ded610d40565b73ffffffffffffffffffffffffffffffffffffffff1614610e43576040517f08c379a0000000000000000000000000000000000000000000000000000000008152600401610e3a90613a92565b60405180910390fd5b610e4b610b5c565b610e8a576040517f08c379a0000000000000000000000000000000000000000000000000000000008152600401610e8190613992565b60405180910390fd5b8060068190555050565b610ea6610e9f6116e8565b8383611de7565b5050565b610eb2612a09565b600560008381526020019081526020016000206040518060c0016040529081600082018054610ee090613e3e565b80601f0160208091040260200160405190810160405280929190818152602001828054610f0c90613e3e565b8015610f595780601f10610f2e57610100808354040283529160200191610f59565b820191906000526020600020905b815481529060010190602001808311610f3c57829003601f168201915b50505050508152602001600182018054610f7290613e3e565b80601f0160208091040260200160405190810160405280929190818152602001828054610f9e90613e3e565b8015610feb5780601f10610fc057610100808354040283529160200191610feb565b820191906000526020600020905b815481529060010190602001808311610fce57829003601f168201915b5050505050815260200160028201805461100490613e3e565b80601f016020809104026020016040519081016040528092919081815260200182805461103090613e3e565b801561107d5780601f106110525761010080835404028352916020019161107d565b820191906000526020600020905b81548152906001019060200180831161106057829003601f168201915b5050505050815260200160038201805461109690613e3e565b80601f01602080910402602001604051908101604052809291908181526020018280546110c290613e3e565b801561110f5780601f106110e45761010080835404028352916020019161110f565b820191906000526020600020905b8154815290600101906020018083116110f257829003601f168201915b50505050508152602001600482015481526020016005820160009054906101000a900473ffffffffffffffffffffffffffffffffffffffff1673ffffffffffffffffffffffffffffffffffffffff1673ffffffffffffffffffffffffffffffffffffffff16815250509050919050565b611187610b5c565b156111c7576040517f08c379a00000000000000000000000000000000000000000000000000000000081526004016111be90613a12565b60405180910390fd5b6111d18282611f54565b5050565b60056020528060005260406000206000915090508060000180546111f890613e3e565b80601f016020809104026020016040519081016040528092919081815260200182805461122490613e3e565b80156112715780601f1061124657610100808354040283529160200191611271565b820191906000526020600020905b81548152906001019060200180831161125457829003601f168201915b50505050509080600101805461128690613e3e565b80601f01602080910402602001604051908101604052809291908181526020018280546112b290613e3e565b80156112ff5780601f106112d4576101008083540402835291602001916112ff565b820191906000526020600020905b8154815290600101906020018083116112e257829003601f168201915b50505050509080600201805461131490613e3e565b80601f016020809104026020016040519081016040528092919081815260200182805461134090613e3e565b801561138d5780601f106113625761010080835404028352916020019161138d565b820191906000526020600020905b81548152906001019060200180831161137057829003601f168201915b5050505050908060030180546113a290613e3e565b80601f01602080910402602001604051908101604052809291908181526020018280546113ce90613e3e565b801561141b5780601f106113f05761010080835404028352916020019161141b565b820191906000526020600020905b8154815290600101906020018083116113fe57829003601f168201915b5050505050908060040154908060050160009054906101000a900473ffffffffffffffffffffffffffffffffffffffff16905086565b6000600260008473ffffffffffffffffffffffffffffffffffffffff1673ffffffffffffffffffffffffffffffffffffffff16815260200190815260200160002060008373ffffffffffffffffffffffffffffffffffffffff1673ffffffffffffffffffffffffffffffffffffffff16815260200190815260200160002060009054906101000a900460ff16905092915050565b6114ed6116e8565b73ffffffffffffffffffffffffffffffffffffffff168573ffffffffffffffffffffffffffffffffffffffff16148061153357506115328561152d6116e8565b611451565b5b611572576040517f08c379a0000000000000000000000000000000000000000000000000000000008152600401611569906139f2565b60405180910390fd5b61157f85858585856120d1565b5050505050565b61158e6116e8565b73ffffffffffffffffffffffffffffffffffffffff166115ac610d40565b73ffffffffffffffffffffffffffffffffffffffff1614611602576040517f08c379a00000000000000000000000000000000000000000000000000000000081526004016115f990613a92565b60405180910390fd5b600073ffffffffffffffffffffffffffffffffffffffff168173ffffffffffffffffffffffffffffffffffffffff161415611672576040517f08c379a0000000000000000000000000000000000000000000000000000000008152600401611669906139d2565b60405180910390fd5b61167b81611b1c565b50565b60007f01ffc9a7000000000000000000000000000000000000000000000000000000007bffffffffffffffffffffffffffffffffffffffffffffffffffffffff1916827bffffffffffffffffffffffffffffffffffffffffffffffffffffffff1916149050919050565b600033905090565b8060039080519060200190611706929190612a55565b5050565b815183511461174e576040517f08c379a000000000000000000000000000000000000000000000000000000000815260040161174590613af2565b60405180910390fd5b600073ffffffffffffffffffffffffffffffffffffffff168473ffffffffffffffffffffffffffffffffffffffff1614156117be576040517f08c379a00000000000000000000000000000000000000000000000000000000081526004016117b590613a32565b60405180910390fd5b60006117c86116e8565b90506117d8818787878787612370565b60005b84518110156119d857600085828151811061181f577f4e487b7100000000000000000000000000000000000000000000000000000000600052603260045260246000fd5b602002602001015190506000858381518110611864577f4e487b7100000000000000000000000000000000000000000000000000000000600052603260045260246000fd5b6020026020010151905060006001600084815260200190815260200160002060008b73ffffffffffffffffffffffffffffffffffffffff1673ffffffffffffffffffffffffffffffffffffffff16815260200190815260200160002054905081811015611906576040517f08c379a00000000000000000000000000000000000000000000000000000000081526004016118fd90613a72565b60405180910390fd5b8181036001600085815260200190815260200160002060008c73ffffffffffffffffffffffffffffffffffffffff1673ffffffffffffffffffffffffffffffffffffffff16815260200190815260200160002081905550816001600085815260200190815260200160002060008b73ffffffffffffffffffffffffffffffffffffffff1673ffffffffffffffffffffffffffffffffffffffff16815260200190815260200160002060008282546119bd9190613d32565b92505081905550505050806119d190613ea1565b90506117db565b508473ffffffffffffffffffffffffffffffffffffffff168673ffffffffffffffffffffffffffffffffffffffff168273ffffffffffffffffffffffffffffffffffffffff167f4a39dc06d4c0dbc64b70af90fd698a233a518aa5d07e595d983b8c0526c8f7fb8787604051611a4f929190613861565b60405180910390a4611a65818787878787612378565b611a73818787878787612380565b505050505050565b611a83610b5c565b611ac2576040517f08c379a0000000000000000000000000000000000000000000000000000000008152600401611ab990613992565b60405180910390fd5b60008060166101000a81548160ff0219169083151502179055507f5db9ee0a495bf2e6ff9c91a7834c1ba4fdd244a5e8aa4e537bd38aeae4b073aa611b056116e8565b604051611b129190613740565b60405180910390a1565b60008060029054906101000a900473ffffffffffffffffffffffffffffffffffffffff16905081600060026101000a81548173ffffffffffffffffffffffffffffffffffffffff021916908373ffffffffffffffffffffffffffffffffffffffff1602179055508173ffffffffffffffffffffffffffffffffffffffff168173ffffffffffffffffffffffffffffffffffffffff167f8be0079c531659141344cd1fd0a4f28419497f9722a3daafe3b4186f6b6457e060405160405180910390a35050565b611be9610b5c565b15611c29576040517f08c379a0000000000000000000000000000000000000000000000000000000008152600401611c2090613a12565b60405180910390fd5b6001600060166101000a81548160ff0219169083151502179055507f62e78cea01bee320cd4e420270b5ea74000d11b0c9f74754ebdbfc544b05a258611c6d6116e8565b604051611c7a9190613740565b60405180910390a1565b600060046000858152602001908152602001600020805480602002602001604051908101604052809291908181526020018280548015611d1957602002820191906000526020600020905b8160009054906101000a900473ffffffffffffffffffffffffffffffffffffffff1673ffffffffffffffffffffffffffffffffffffffff1681526020019060010190808311611ccf575b505050505090506000805b8251811015611db957828181518110611d66577f4e487b7100000000000000000000000000000000000000000000000000000000600052603260045260246000fd5b602002602001015173ffffffffffffffffffffffffffffffffffffffff168573ffffffffffffffffffffffffffffffffffffffff161415611da657600191505b8080611db190613ea1565b915050611d24565b50611dd68486600160405180602001604052806000815250612567565b611de08385612719565b5050505050565b8173ffffffffffffffffffffffffffffffffffffffff168373ffffffffffffffffffffffffffffffffffffffff161415611e56576040517f08c379a0000000000000000000000000000000000000000000000000000000008152600401611e4d90613ab2565b60405180910390fd5b80600260008573ffffffffffffffffffffffffffffffffffffffff1673ffffffffffffffffffffffffffffffffffffffff16815260200190815260200160002060008473ffffffffffffffffffffffffffffffffffffffff1673ffffffffffffffffffffffffffffffffffffffff16815260200190815260200160002060006101000a81548160ff0219169083151502179055508173ffffffffffffffffffffffffffffffffffffffff168373ffffffffffffffffffffffffffffffffffffffff167f17307eab39ab6107e8899845ad3d59bd9653f200f220920489ca2b5937696c3183604051611f479190613898565b60405180910390a3505050565b611f5c612a09565b828160a0019073ffffffffffffffffffffffffffffffffffffffff16908173ffffffffffffffffffffffffffffffffffffffff1681525050816000015181600001819052508160400151816040018190525081606001518160600181905250816080015181608001818152505081602001518160200181905250806005600060065481526020019081526020016000206000820151816000019080519060200190612008929190612a55565b506020820151816001019080519060200190612025929190612a55565b506040820151816002019080519060200190612042929190612a55565b50606082015181600301908051906020019061205f929190612a55565b506080820151816004015560a08201518160050160006101000a81548173ffffffffffffffffffffffffffffffffffffffff021916908373ffffffffffffffffffffffffffffffffffffffff160217905550905050600660008154809291906120c790613ea1565b9190505550505050565b600073ffffffffffffffffffffffffffffffffffffffff168473ffffffffffffffffffffffffffffffffffffffff161415612141576040517f08c379a000000000000000000000000000000000000000000000000000000000815260040161213890613a32565b60405180910390fd5b600061214b6116e8565b9050600061215885612739565b9050600061216585612739565b9050612175838989858589612370565b60006001600088815260200190815260200160002060008a73ffffffffffffffffffffffffffffffffffffffff1673ffffffffffffffffffffffffffffffffffffffff1681526020019081526020016000205490508581101561220d576040517f08c379a000000000000000000000000000000000000000000000000000000000815260040161220490613a72565b60405180910390fd5b8581036001600089815260200190815260200160002060008b73ffffffffffffffffffffffffffffffffffffffff1673ffffffffffffffffffffffffffffffffffffffff16815260200190815260200160002081905550856001600089815260200190815260200160002060008a73ffffffffffffffffffffffffffffffffffffffff1673ffffffffffffffffffffffffffffffffffffffff16815260200190815260200160002060008282546122c49190613d32565b925050819055508773ffffffffffffffffffffffffffffffffffffffff168973ffffffffffffffffffffffffffffffffffffffff168573ffffffffffffffffffffffffffffffffffffffff167fc3d58168c5ae7397731d063d5bbf3d657854427343f4c083240f7aacaa2d0f628a8a604051612341929190613b6f565b60405180910390a4612357848a8a86868a612378565b612365848a8a8a8a8a6127ff565b505050505050505050565b505050505050565b505050505050565b61239f8473ffffffffffffffffffffffffffffffffffffffff166129e6565b1561255f578373ffffffffffffffffffffffffffffffffffffffff1663bc197c8187878686866040518663ffffffff1660e01b81526004016123e595949392919061375b565b602060405180830381600087803b1580156123ff57600080fd5b505af192505050801561243057506040513d601f19601f8201168201806040525081019061242d9190613159565b60015b6124d65761243c613f77565b806308c379a0141561249957506124516143e6565b8061245c575061249b565b806040517f08c379a000000000000000000000000000000000000000000000000000000000815260040161249091906138b3565b60405180910390fd5b505b6040517f08c379a00000000000000000000000000000000000000000000000000000000081526004016124cd90613952565b60405180910390fd5b63bc197c8160e01b7bffffffffffffffffffffffffffffffffffffffffffffffffffffffff1916817bffffffffffffffffffffffffffffffffffffffffffffffffffffffff19161461255d576040517f08c379a000000000000000000000000000000000000000000000000000000000815260040161255490613972565b60405180910390fd5b505b505050505050565b600073ffffffffffffffffffffffffffffffffffffffff168473ffffffffffffffffffffffffffffffffffffffff1614156125d7576040517f08c379a00000000000000000000000000000000000000000000000000000000081526004016125ce90613b12565b60405180910390fd5b60006125e16116e8565b905060006125ee85612739565b905060006125fb85612739565b905061260c83600089858589612370565b846001600088815260200190815260200160002060008973ffffffffffffffffffffffffffffffffffffffff1673ffffffffffffffffffffffffffffffffffffffff168152602001908152602001600020600082825461266c9190613d32565b925050819055508673ffffffffffffffffffffffffffffffffffffffff16600073ffffffffffffffffffffffffffffffffffffffff168473ffffffffffffffffffffffffffffffffffffffff167fc3d58168c5ae7397731d063d5bbf3d657854427343f4c083240f7aacaa2d0f6289896040516126ea929190613b6f565b60405180910390a461270183600089858589612378565b612710836000898989896127ff565b50505050505050565b6127358160008460405180602001604052806000815250612567565b5050565b60606000600167ffffffffffffffff81111561277e577f4e487b7100000000000000000000000000000000000000000000000000000000600052604160045260246000fd5b6040519080825280602002602001820160405280156127ac5781602001602082028036833780820191505090505b50905082816000815181106127ea577f4e487b7100000000000000000000000000000000000000000000000000000000600052603260045260246000fd5b60200260200101818152505080915050919050565b61281e8473ffffffffffffffffffffffffffffffffffffffff166129e6565b156129de578373ffffffffffffffffffffffffffffffffffffffff1663f23a6e6187878686866040518663ffffffff1660e01b81526004016128649594939291906137c3565b602060405180830381600087803b15801561287e57600080fd5b505af19250505080156128af57506040513d601f19601f820116820180604052508101906128ac9190613159565b60015b612955576128bb613f77565b806308c379a0141561291857506128d06143e6565b806128db575061291a565b806040517f08c379a000000000000000000000000000000000000000000000000000000000815260040161290f91906138b3565b60405180910390fd5b505b6040517f08c379a000000000000000000000000000000000000000000000000000000000815260040161294c90613952565b60405180910390fd5b63f23a6e6160e01b7bffffffffffffffffffffffffffffffffffffffffffffffffffffffff1916817bffffffffffffffffffffffffffffffffffffffffffffffffffffffff1916146129dc576040517f08c379a00000000000000000000000000000000000000000000000000000000081526004016129d390613972565b60405180910390fd5b505b505050505050565b6000808273ffffffffffffffffffffffffffffffffffffffff163b119050919050565b6040518060c001604052806060815260200160608152602001606081526020016060815260200160008152602001600073ffffffffffffffffffffffffffffffffffffffff1681525090565b828054612a6190613e3e565b90600052602060002090601f016020900481019282612a835760008555612aca565b82601f10612a9c57805160ff1916838001178555612aca565b82800160010185558215612aca579182015b82811115612ac9578251825591602001919060010190612aae565b5b509050612ad79190612adb565b5090565b5b80821115612af4576000816000905550600101612adc565b5090565b6000612b0b612b0684613bbd565b613b98565b90508083825260208201905082856020860282011115612b2a57600080fd5b60005b85811015612b5a5781612b408882612c4c565b845260208401935060208301925050600181019050612b2d565b5050509392505050565b6000612b77612b7284613be9565b613b98565b90508083825260208201905082856020860282011115612b9657600080fd5b60005b85811015612bc65781612bac8882612e30565b845260208401935060208301925050600181019050612b99565b5050509392505050565b6000612be3612bde84613c15565b613b98565b905082815260208101848484011115612bfb57600080fd5b612c06848285613dfc565b509392505050565b6000612c21612c1c84613c46565b613b98565b905082815260208101848484011115612c3957600080fd5b612c44848285613dfc565b509392505050565b600081359050612c5b8161447c565b92915050565b600082601f830112612c7257600080fd5b8135612c82848260208601612af8565b91505092915050565b600082601f830112612c9c57600080fd5b8135612cac848260208601612b64565b91505092915050565b600081359050612cc481614493565b92915050565b600081359050612cd9816144aa565b92915050565b600081519050612cee816144aa565b92915050565b600082601f830112612d0557600080fd5b8135612d15848260208601612bd0565b91505092915050565b600082601f830112612d2f57600080fd5b8135612d3f848260208601612c0e565b91505092915050565b600060a08284031215612d5a57600080fd5b612d6460a0613b98565b9050600082013567ffffffffffffffff811115612d8057600080fd5b612d8c84828501612d1e565b600083015250602082013567ffffffffffffffff811115612dac57600080fd5b612db884828501612d1e565b602083015250604082013567ffffffffffffffff811115612dd857600080fd5b612de484828501612d1e565b604083015250606082013567ffffffffffffffff811115612e0457600080fd5b612e1084828501612d1e565b6060830152506080612e2484828501612e30565b60808301525092915050565b600081359050612e3f816144c1565b92915050565b600060208284031215612e5757600080fd5b6000612e6584828501612c4c565b91505092915050565b60008060408385031215612e8157600080fd5b6000612e8f85828601612c4c565b9250506020612ea085828601612c4c565b9150509250929050565b600080600080600060a08688031215612ec257600080fd5b6000612ed088828901612c4c565b9550506020612ee188828901612c4c565b945050604086013567ffffffffffffffff811115612efe57600080fd5b612f0a88828901612c8b565b935050606086013567ffffffffffffffff811115612f2757600080fd5b612f3388828901612c8b565b925050608086013567ffffffffffffffff811115612f5057600080fd5b612f5c88828901612cf4565b9150509295509295909350565b600080600080600060a08688031215612f8157600080fd5b6000612f8f88828901612c4c565b9550506020612fa088828901612c4c565b9450506040612fb188828901612e30565b9350506060612fc288828901612e30565b925050608086013567ffffffffffffffff811115612fdf57600080fd5b612feb88828901612cf4565b9150509295509295909350565b6000806040838503121561300b57600080fd5b600061301985828601612c4c565b925050602061302a85828601612cb5565b9150509250929050565b6000806040838503121561304757600080fd5b600061305585828601612c4c565b925050602083013567ffffffffffffffff81111561307257600080fd5b61307e85828601612d48565b9150509250929050565b6000806040838503121561309b57600080fd5b60006130a985828601612c4c565b92505060206130ba85828601612e30565b9150509250929050565b600080604083850312156130d757600080fd5b600083013567ffffffffffffffff8111156130f157600080fd5b6130fd85828601612c61565b925050602083013567ffffffffffffffff81111561311a57600080fd5b61312685828601612c8b565b9150509250929050565b60006020828403121561314257600080fd5b600061315084828501612cca565b91505092915050565b60006020828403121561316b57600080fd5b600061317984828501612cdf565b91505092915050565b60006020828403121561319457600080fd5b600082013567ffffffffffffffff8111156131ae57600080fd5b6131ba84828501612d1e565b91505092915050565b6000602082840312156131d557600080fd5b60006131e384828501612e30565b91505092915050565b600080604083850312156131ff57600080fd5b600061320d85828601612e30565b925050602061321e85828601612c4c565b9150509250929050565b60008060006060848603121561323d57600080fd5b600061324b86828701612e30565b935050602061325c86828701612c4c565b925050604061326d86828701612e30565b9150509250925092565b6000806040838503121561328a57600080fd5b600061329885828601612e30565b92505060206132a985828601612e30565b9150509250929050565b60006132bf83836132e3565b60208301905092915050565b60006132d78383613722565b60208301905092915050565b6132ec81613d88565b82525050565b6132fb81613d88565b82525050565b600061330c82613c97565b6133168185613cdd565b935061332183613c77565b8060005b8381101561335257815161333988826132b3565b975061334483613cc3565b925050600181019050613325565b5085935050505092915050565b600061336a82613ca2565b6133748185613cee565b935061337f83613c87565b8060005b838110156133b057815161339788826132cb565b97506133a283613cd0565b925050600181019050613383565b5085935050505092915050565b6133c681613d9a565b82525050565b60006133d782613cad565b6133e18185613cff565b93506133f1818560208601613e0b565b6133fa81613f99565b840191505092915050565b600061341082613cb8565b61341a8185613d10565b935061342a818560208601613e0b565b61343381613f99565b840191505092915050565b600061344982613cb8565b6134538185613d21565b9350613463818560208601613e0b565b61346c81613f99565b840191505092915050565b6000613484603483613d21565b915061348f82613fb7565b604082019050919050565b60006134a7602883613d21565b91506134b282614006565b604082019050919050565b60006134ca601483613d21565b91506134d582614055565b602082019050919050565b60006134ed602b83613d21565b91506134f88261407e565b604082019050919050565b6000613510602683613d21565b915061351b826140cd565b604082019050919050565b6000613533602983613d21565b915061353e8261411c565b604082019050919050565b6000613556601083613d21565b91506135618261416b565b602082019050919050565b6000613579602583613d21565b915061358482614194565b604082019050919050565b600061359c603283613d21565b91506135a7826141e3565b604082019050919050565b60006135bf602a83613d21565b91506135ca82614232565b604082019050919050565b60006135e2602083613d21565b91506135ed82614281565b602082019050919050565b6000613605602983613d21565b9150613610826142aa565b604082019050919050565b6000613628602983613d21565b9150613633826142f9565b604082019050919050565b600061364b602883613d21565b915061365682614348565b604082019050919050565b600061366e602183613d21565b915061367982614397565b604082019050919050565b600060c08301600083015184820360008601526136a18282613405565b915050602083015184820360208601526136bb8282613405565b915050604083015184820360408601526136d58282613405565b915050606083015184820360608601526136ef8282613405565b91505060808301516137046080860182613722565b5060a083015161371760a08601826132e3565b508091505092915050565b61372b81613df2565b82525050565b61373a81613df2565b82525050565b600060208201905061375560008301846132f2565b92915050565b600060a08201905061377060008301886132f2565b61377d60208301876132f2565b818103604083015261378f818661335f565b905081810360608301526137a3818561335f565b905081810360808301526137b781846133cc565b90509695505050505050565b600060a0820190506137d860008301886132f2565b6137e560208301876132f2565b6137f26040830186613731565b6137ff6060830185613731565b818103608083015261381181846133cc565b90509695505050505050565b600060208201905081810360008301526138378184613301565b905092915050565b60006020820190508181036000830152613859818461335f565b905092915050565b6000604082019050818103600083015261387b818561335f565b9050818103602083015261388f818461335f565b90509392505050565b60006020820190506138ad60008301846133bd565b92915050565b600060208201905081810360008301526138cd818461343e565b905092915050565b600060c08201905081810360008301526138ef818961343e565b90508181036020830152613903818861343e565b90508181036040830152613917818761343e565b9050818103606083015261392b818661343e565b905061393a6080830185613731565b61394760a08301846132f2565b979650505050505050565b6000602082019050818103600083015261396b81613477565b9050919050565b6000602082019050818103600083015261398b8161349a565b9050919050565b600060208201905081810360008301526139ab816134bd565b9050919050565b600060208201905081810360008301526139cb816134e0565b9050919050565b600060208201905081810360008301526139eb81613503565b9050919050565b60006020820190508181036000830152613a0b81613526565b9050919050565b60006020820190508181036000830152613a2b81613549565b9050919050565b60006020820190508181036000830152613a4b8161356c565b9050919050565b60006020820190508181036000830152613a6b8161358f565b9050919050565b60006020820190508181036000830152613a8b816135b2565b9050919050565b60006020820190508181036000830152613aab816135d5565b9050919050565b60006020820190508181036000830152613acb816135f8565b9050919050565b60006020820190508181036000830152613aeb8161361b565b9050919050565b60006020820190508181036000830152613b0b8161363e565b9050919050565b60006020820190508181036000830152613b2b81613661565b9050919050565b60006020820190508181036000830152613b4c8184613684565b905092915050565b6000602082019050613b696000830184613731565b92915050565b6000604082019050613b846000830185613731565b613b916020830184613731565b9392505050565b6000613ba2613bb3565b9050613bae8282613e70565b919050565b6000604051905090565b600067ffffffffffffffff821115613bd857613bd7613f48565b5b602082029050602081019050919050565b600067ffffffffffffffff821115613c0457613c03613f48565b5b602082029050602081019050919050565b600067ffffffffffffffff821115613c3057613c2f613f48565b5b613c3982613f99565b9050602081019050919050565b600067ffffffffffffffff821115613c6157613c60613f48565b5b613c6a82613f99565b9050602081019050919050565b6000819050602082019050919050565b6000819050602082019050919050565b600081519050919050565b600081519050919050565b600081519050919050565b600081519050919050565b6000602082019050919050565b6000602082019050919050565b600082825260208201905092915050565b600082825260208201905092915050565b600082825260208201905092915050565b600082825260208201905092915050565b600082825260208201905092915050565b6000613d3d82613df2565b9150613d4883613df2565b9250827fffffffffffffffffffffffffffffffffffffffffffffffffffffffffffffffff03821115613d7d57613d7c613eea565b5b828201905092915050565b6000613d9382613dd2565b9050919050565b60008115159050919050565b60007fffffffff0000000000000000000000000000000000000000000000000000000082169050919050565b600073ffffffffffffffffffffffffffffffffffffffff82169050919050565b6000819050919050565b82818337600083830152505050565b60005b83811015613e29578082015181840152602081019050613e0e565b83811115613e38576000848401525b50505050565b60006002820490506001821680613e5657607f821691505b60208210811415613e6a57613e69613f19565b5b50919050565b613e7982613f99565b810181811067ffffffffffffffff82111715613e9857613e97613f48565b5b80604052505050565b6000613eac82613df2565b91507fffffffffffffffffffffffffffffffffffffffffffffffffffffffffffffffff821415613edf57613ede613eea565b5b600182019050919050565b7f4e487b7100000000000000000000000000000000000000000000000000000000600052601160045260246000fd5b7f4e487b7100000000000000000000000000000000000000000000000000000000600052602260045260246000fd5b7f4e487b7100000000000000000000000000000000000000000000000000000000600052604160045260246000fd5b600060033d1115613f965760046000803e613f93600051613faa565b90505b90565b6000601f19601f8301169050919050565b60008160e01c9050919050565b7f455243313135353a207472616e7366657220746f206e6f6e204552433131353560008201527f526563656976657220696d706c656d656e746572000000000000000000000000602082015250565b7f455243313135353a204552433131353552656365697665722072656a6563746560008201527f6420746f6b656e73000000000000000000000000000000000000000000000000602082015250565b7f5061757361626c653a206e6f7420706175736564000000000000000000000000600082015250565b7f455243313135353a2062616c616e636520717565727920666f7220746865207a60008201527f65726f2061646472657373000000000000000000000000000000000000000000602082015250565b7f4f776e61626c653a206e6577206f776e657220697320746865207a65726f206160008201527f6464726573730000000000000000000000000000000000000000000000000000602082015250565b7f455243313135353a2063616c6c6572206973206e6f74206f776e6572206e6f7260008201527f20617070726f7665640000000000000000000000000000000000000000000000602082015250565b7f5061757361626c653a2070617573656400000000000000000000000000000000600082015250565b7f455243313135353a207472616e7366657220746f20746865207a65726f20616460008201527f6472657373000000000000000000000000000000000000000000000000000000602082015250565b7f455243313135353a207472616e736665722063616c6c6572206973206e6f742060008201527f6f776e6572206e6f7220617070726f7665640000000000000000000000000000602082015250565b7f455243313135353a20696e73756666696369656e742062616c616e636520666f60008201527f72207472616e7366657200000000000000000000000000000000000000000000602082015250565b7f4f776e61626c653a2063616c6c6572206973206e6f7420746865206f776e6572600082015250565b7f455243313135353a2073657474696e6720617070726f76616c2073746174757360008201527f20666f722073656c660000000000000000000000000000000000000000000000602082015250565b7f455243313135353a206163636f756e747320616e6420696473206c656e67746860008201527f206d69736d617463680000000000000000000000000000000000000000000000602082015250565b7f455243313135353a2069647320616e6420616d6f756e7473206c656e6774682060008201527f6d69736d61746368000000000000000000000000000000000000000000000000602082015250565b7f455243313135353a206d696e7420746f20746865207a65726f2061646472657360008201527f7300000000000000000000000000000000000000000000000000000000000000602082015250565b600060443d10156143f657614479565b6143fe613bb3565b60043d036004823e80513d602482011167ffffffffffffffff82111715614426575050614479565b808201805167ffffffffffffffff8111156144445750505050614479565b80602083010160043d038501811115614461575050505050614479565b61447082602001850186613e70565b82955050505050505b90565b61448581613d88565b811461449057600080fd5b50565b61449c81613d9a565b81146144a757600080fd5b50565b6144b381613da6565b81146144be57600080fd5b50565b6144ca81613df2565b81146144d557600080fd5b5056fea2646970667358221220ed1f742b57e4a65259ca4a6c257b16d05cc6d17880dd79101a2a7a4a0d5c0a2e64736f6c63430008040033",
  "linkReferences": {},
  "deployedLinkReferences": {}
}