{
  "_format": "hh-sol-artifact-1",
  "contractName": "Borantia",
  "sourceName": "contracts/Borantia.sol",
  "abi": [
    {
      "inputs": [],
      "stateMutability": "nonpayable",
      "type": "constructor"
    },
    {
      "anonymous": false,
      "inputs": [
        {
          "indexed": true,
          "internalType": "address",
          "name": "account",
          "type": "address"
        },
        {
          "indexed": true,
          "internalType": "address",
          "name": "operator",
          "type": "address"
        },
        {
          "indexed": false,
          "internalType": "bool",
          "name": "approved",
          "type": "bool"
        }
      ],
      "name": "ApprovalForAll",
      "type": "event"
    },
    {
      "anonymous": false,
      "inputs": [
        {
          "indexed": false,
          "internalType": "address",
          "name": "volunteer",
          "type": "address"
        },
        {
          "indexed": false,
          "internalType": "uint256",
          "name": "h",
          "type": "uint256"
        },
        {
          "indexed": false,
          "internalType": "uint256",
          "name": "tid",
          "type": "uint256"
        }
      ],
      "name": "ClaimedVolunteerHours",
      "type": "event"
    },
    {
      "anonymous": false,
      "inputs": [
        {
          "indexed": false,
          "internalType": "uint8",
          "name": "version",
          "type": "uint8"
        }
      ],
      "name": "Initialized",
      "type": "event"
    },
    {
      "anonymous": false,
      "inputs": [
        {
          "indexed": true,
          "internalType": "address",
          "name": "previousOwner",
          "type": "address"
        },
        {
          "indexed": true,
          "internalType": "address",
          "name": "newOwner",
          "type": "address"
        }
      ],
      "name": "OwnershipTransferred",
      "type": "event"
    },
    {
      "anonymous": false,
      "inputs": [
        {
          "indexed": false,
          "internalType": "address",
          "name": "account",
          "type": "address"
        }
      ],
      "name": "Paused",
      "type": "event"
    },
    {
      "anonymous": false,
      "inputs": [
        {
          "indexed": true,
          "internalType": "address",
          "name": "operator",
          "type": "address"
        },
        {
          "indexed": true,
          "internalType": "address",
          "name": "from",
          "type": "address"
        },
        {
          "indexed": true,
          "internalType": "address",
          "name": "to",
          "type": "address"
        },
        {
          "indexed": false,
          "internalType": "uint256[]",
          "name": "ids",
          "type": "uint256[]"
        },
        {
          "indexed": false,
          "internalType": "uint256[]",
          "name": "values",
          "type": "uint256[]"
        }
      ],
      "name": "TransferBatch",
      "type": "event"
    },
    {
      "anonymous": false,
      "inputs": [
        {
          "indexed": true,
          "internalType": "address",
          "name": "operator",
          "type": "address"
        },
        {
          "indexed": true,
          "internalType": "address",
          "name": "from",
          "type": "address"
        },
        {
          "indexed": true,
          "internalType": "address",
          "name": "to",
          "type": "address"
        },
        {
          "indexed": false,
          "internalType": "uint256",
          "name": "id",
          "type": "uint256"
        },
        {
          "indexed": false,
          "internalType": "uint256",
          "name": "value",
          "type": "uint256"
        }
      ],
      "name": "TransferSingle",
      "type": "event"
    },
    {
      "anonymous": false,
      "inputs": [
        {
          "indexed": false,
          "internalType": "string",
          "name": "value",
          "type": "string"
        },
        {
          "indexed": true,
          "internalType": "uint256",
          "name": "id",
          "type": "uint256"
        }
      ],
      "name": "URI",
      "type": "event"
    },
    {
      "anonymous": false,
      "inputs": [
        {
          "indexed": false,
          "internalType": "address",
          "name": "account",
          "type": "address"
        }
      ],
      "name": "Unpaused",
      "type": "event"
    },
    {
      "inputs": [
        {
          "internalType": "uint256",
          "name": "id",
          "type": "uint256"
        },
        {
          "internalType": "address",
          "name": "addr",
          "type": "address"
        }
      ],
      "name": "addVolunteer",
      "outputs": [],
      "stateMutability": "nonpayable",
      "type": "function"
    },
    {
      "inputs": [
        {
          "internalType": "address",
          "name": "account",
          "type": "address"
        },
        {
          "internalType": "uint256",
          "name": "id",
          "type": "uint256"
        }
      ],
      "name": "balanceOf",
      "outputs": [
        {
          "internalType": "uint256",
          "name": "",
          "type": "uint256"
        }
      ],
      "stateMutability": "view",
      "type": "function"
    },
    {
      "inputs": [
        {
          "internalType": "address[]",
          "name": "accounts",
          "type": "address[]"
        },
        {
          "internalType": "uint256[]",
          "name": "ids",
          "type": "uint256[]"
        }
      ],
      "name": "balanceOfBatch",
      "outputs": [
        {
          "internalType": "uint256[]",
          "name": "",
          "type": "uint256[]"
        }
      ],
      "stateMutability": "view",
      "type": "function"
    },
    {
      "inputs": [
        {
          "internalType": "uint256",
          "name": "id",
          "type": "uint256"
        },
        {
          "internalType": "address",
          "name": "claimee",
          "type": "address"
        },
        {
          "internalType": "uint256",
          "name": "h",
          "type": "uint256"
        }
      ],
      "name": "claimBorantia",
      "outputs": [],
      "stateMutability": "nonpayable",
      "type": "function"
    },
    {
      "inputs": [
        {
          "internalType": "uint256",
          "name": "tokenId",
          "type": "uint256"
        }
      ],
      "name": "getMetadata",
      "outputs": [
        {
          "components": [
            {
              "internalType": "string",
              "name": "title",
              "type": "string"
            },
            {
              "internalType": "string",
              "name": "organization",
              "type": "string"
            },
            {
              "internalType": "string",
              "name": "description",
              "type": "string"
            },
            {
              "internalType": "string",
              "name": "imageUrl",
              "type": "string"
            },
            {
              "internalType": "uint256",
              "name": "eventDate",
              "type": "uint256"
            },
            {
              "internalType": "address",
              "name": "creator",
              "type": "address"
            }
          ],
          "internalType": "struct Borantia.BorantiaMetadata",
          "name": "",
          "type": "tuple"
        }
      ],
      "stateMutability": "view",
      "type": "function"
    },
    {
      "inputs": [
        {
          "internalType": "uint256",
          "name": "tokenId",
          "type": "uint256"
        }
      ],
      "name": "getVolunteerList",
      "outputs": [
        {
          "internalType": "address[]",
          "name": "",
          "type": "address[]"
        }
      ],
      "stateMutability": "view",
      "type": "function"
    },
    {
      "inputs": [
        {
          "internalType": "address",
          "name": "account",
          "type": "address"
        },
        {
          "internalType": "address",
          "name": "operator",
          "type": "address"
        }
      ],
      "name": "isApprovedForAll",
      "outputs": [
        {
          "internalType": "bool",
          "name": "",
          "type": "bool"
        }
      ],
      "stateMutability": "view",
      "type": "function"
    },
    {
      "inputs": [],
      "name": "latestUnusedTokenId",
      "outputs": [
        {
          "internalType": "uint256",
          "name": "",
          "type": "uint256"
        }
      ],
      "stateMutability": "view",
      "type": "function"
    },
    {
      "inputs": [],
      "name": "owner",
      "outputs": [
        {
          "internalType": "address",
          "name": "",
          "type": "address"
        }
      ],
      "stateMutability": "view",
      "type": "function"
    },
    {
      "inputs": [],
      "name": "pause",
      "outputs": [],
      "stateMutability": "nonpayable",
      "type": "function"
    },
    {
      "inputs": [],
      "name": "paused",
      "outputs": [
        {
          "internalType": "bool",
          "name": "",
          "type": "bool"
        }
      ],
      "stateMutability": "view",
      "type": "function"
    },
    {
      "inputs": [
        {
          "internalType": "address",
          "name": "creator",
          "type": "address"
        },
        {
          "components": [
            {
              "internalType": "string",
              "name": "title",
              "type": "string"
            },
            {
              "internalType": "string",
              "name": "organization",
              "type": "string"
            },
            {
              "internalType": "string",
              "name": "description",
              "type": "string"
            },
            {
              "internalType": "string",
              "name": "imageUrl",
              "type": "string"
            },
            {
              "internalType": "uint256",
              "name": "eventDate",
              "type": "uint256"
            }
          ],
          "internalType": "struct Borantia.BorantiaInputData",
          "name": "metadata",
          "type": "tuple"
        }
      ],
      "name": "registerBorantia",
      "outputs": [],
      "stateMutability": "nonpayable",
      "type": "function"
    },
    {
      "inputs": [],
      "name": "renounceOwnership",
      "outputs": [],
      "stateMutability": "nonpayable",
      "type": "function"
    },
    {
      "inputs": [
        {
          "internalType": "address",
          "name": "from",
          "type": "address"
        },
        {
          "internalType": "address",
          "name": "to",
          "type": "address"
        },
        {
          "internalType": "uint256[]",
          "name": "ids",
          "type": "uint256[]"
        },
        {
          "internalType": "uint256[]",
          "name": "amounts",
          "type": "uint256[]"
        },
        {
          "internalType": "bytes",
          "name": "data",
          "type": "bytes"
        }
      ],
      "name": "safeBatchTransferFrom",
      "outputs": [],
      "stateMutability": "nonpayable",
      "type": "function"
    },
    {
      "inputs": [
        {
          "internalType": "address",
          "name": "from",
          "type": "address"
        },
        {
          "internalType": "address",
          "name": "to",
          "type": "address"
        },
        {
          "internalType": "uint256",
          "name": "id",
          "type": "uint256"
        },
        {
          "internalType": "uint256",
          "name": "amount",
          "type": "uint256"
        },
        {
          "internalType": "bytes",
          "name": "data",
          "type": "bytes"
        }
      ],
      "name": "safeTransferFrom",
      "outputs": [],
      "stateMutability": "nonpayable",
      "type": "function"
    },
    {
      "inputs": [
        {
          "internalType": "address",
          "name": "operator",
          "type": "address"
        },
        {
          "internalType": "bool",
          "name": "approved",
          "type": "bool"
        }
      ],
      "name": "setApprovalForAll",
      "outputs": [],
      "stateMutability": "nonpayable",
      "type": "function"
    },
    {
      "inputs": [
        {
          "internalType": "uint256",
          "name": "_latestUnusedTokenId",
          "type": "uint256"
        }
      ],
      "name": "setLatestUnusedTokenId",
      "outputs": [],
      "stateMutability": "nonpayable",
      "type": "function"
    },
    {
      "inputs": [
        {
          "internalType": "string",
          "name": "_uri",
          "type": "string"
        }
      ],
      "name": "setURI",
      "outputs": [],
      "stateMutability": "nonpayable",
      "type": "function"
    },
    {
      "inputs": [
        {
          "internalType": "bytes4",
          "name": "interfaceId",
          "type": "bytes4"
        }
      ],
      "name": "supportsInterface",
      "outputs": [
        {
          "internalType": "bool",
          "name": "",
          "type": "bool"
        }
      ],
      "stateMutability": "view",
      "type": "function"
    },
    {
      "inputs": [
        {
          "internalType": "uint256",
          "name": "",
          "type": "uint256"
        }
      ],
      "name": "tokenIdToMetadata",
      "outputs": [
        {
          "internalType": "string",
          "name": "title",
          "type": "string"
        },
        {
          "internalType": "string",
          "name": "organization",
          "type": "string"
        },
        {
          "internalType": "string",
          "name": "description",
          "type": "string"
        },
        {
          "internalType": "string",
          "name": "imageUrl",
          "type": "string"
        },
        {
          "internalType": "uint256",
          "name": "eventDate",
          "type": "uint256"
        },
        {
          "internalType": "address",
          "name": "creator",
          "type": "address"
        }
      ],
      "stateMutability": "view",
      "type": "function"
    },
    {
      "inputs": [
        {
          "internalType": "uint256",
          "name": "",
          "type": "uint256"
        },
        {
          "internalType": "uint256",
          "name": "",
          "type": "uint256"
        }
      ],
      "name": "tokenIdToVolunteers",
      "outputs": [
        {
          "internalType": "address",
          "name": "",
          "type": "address"
        }
      ],
      "stateMutability": "view",
      "type": "function"
    },
    {
      "inputs": [
        {
          "internalType": "address",
          "name": "newOwner",
          "type": "address"
        }
      ],
      "name": "transferOwnership",
      "outputs": [],
      "stateMutability": "nonpayable",
      "type": "function"
    },
    {
      "inputs": [],
      "name": "unpause",
      "outputs": [],
      "stateMutability": "nonpayable",
      "type": "function"
    },
    {
      "inputs": [
        {
          "internalType": "uint256",
          "name": "",
          "type": "uint256"
        }
      ],
      "name": "uri",
      "outputs": [
        {
          "internalType": "string",
          "name": "",
          "type": "string"
        }
      ],
      "stateMutability": "view",
      "type": "function"
    }
  ],
  "bytecode": "0x60806040523480156200001157600080fd5b506040518060400160405280601281526020017f6d657461646174612f7b69647d2e6a736f6e0000000000000000000000000000815250620000686200005c620000a260201b60201c565b620000aa60201b60201c565b60008060166101000a81548160ff02191690831515021790555062000093816200016f60201b60201c565b506001600681905550620002a0565b600033905090565b60008060029054906101000a900473ffffffffffffffffffffffffffffffffffffffff16905081600060026101000a81548173ffffffffffffffffffffffffffffffffffffffff021916908373ffffffffffffffffffffffffffffffffffffffff1602179055508173ffffffffffffffffffffffffffffffffffffffff168173ffffffffffffffffffffffffffffffffffffffff167f8be0079c531659141344cd1fd0a4f28419497f9722a3daafe3b4186f6b6457e060405160405180910390a35050565b8060039080519060200190620001879291906200018b565b5050565b82805462000199906200023b565b90600052602060002090601f016020900481019282620001bd576000855562000209565b82601f10620001d857805160ff191683800117855562000209565b8280016001018555821562000209579182015b8281111562000208578251825591602001919060010190620001eb565b5b5090506200021891906200021c565b5090565b5b80821115620002375760008160009055506001016200021d565b5090565b600060028204905060018216806200025457607f821691505b602082108114156200026b576200026a62000271565b5b50919050565b7f4e487b7100000000000000000000000000000000000000000000000000000000600052602260045260246000fd5b61458080620002b06000396000f3fe608060405234801561001057600080fd5b50600436106101575760003560e01c8063884ae68d116100c3578063a574cea41161007c578063a574cea41461039c578063ac152b29146103cc578063bf64db1d146103e8578063e985e9c51461041d578063f242432a1461044d578063f2fde38b1461046957610157565b8063884ae68d146102f05780638da5cb5b1461030c5780638e42e0a21461032a5780639b3b63b6146103465780639eeff04414610364578063a22cb4651461038057610157565b80632eb2c2d6116101155780632eb2c2d6146102685780633f4ba83a146102845780634e1273f41461028e5780635c975abb146102be578063715018a6146102dc5780638456cb59146102e657610157565b8062fdd58e1461015c57806301ffc9a71461018c57806302fe5305146101bc578063031ba440146101d85780630e89341c14610208578063272a472e14610238575b600080fd5b610176600480360381019061017191906130c3565b610485565b6040516101839190613bc6565b60405180910390f35b6101a660048036038101906101a1919061316b565b61054f565b6040516101b3919061390a565b60405180910390f35b6101d660048036038101906101d191906131bd565b610631565b005b6101f260048036038101906101ed91906131fe565b610701565b6040516101ff919061388f565b60405180910390f35b610222600480360381019061021d91906131fe565b6107a2565b60405161022f9190613925565b60405180910390f35b610252600480360381019061024d91906132b2565b610836565b60405161025f919061377b565b60405180910390f35b610282600480360381019061027d9190612ee5565b610884565b005b61028c610925565b005b6102a860048036038101906102a391906130ff565b6109ab565b6040516102b591906138b1565b60405180910390f35b6102c6610b5c565b6040516102d3919061390a565b60405180910390f35b6102e4610b72565b005b6102ee610bfa565b005b61030a60048036038101906103059190613227565b610c80565b005b610314610d40565b604051610321919061377b565b60405180910390f35b610344600480360381019061033f9190613263565b610d69565b005b61034e610dc1565b60405161035b9190613bc6565b60405180910390f35b61037e600480360381019061037991906131fe565b610dc7565b005b61039a60048036038101906103959190613033565b610e94565b005b6103b660048036038101906103b191906131fe565b610eaa565b6040516103c39190613ba4565b60405180910390f35b6103e660048036038101906103e1919061306f565b61117f565b005b61040260048036038101906103fd91906131fe565b6111d5565b60405161041496959493929190613947565b60405180910390f35b61043760048036038101906104329190612ea9565b611451565b604051610444919061390a565b60405180910390f35b61046760048036038101906104629190612fa4565b6114e5565b005b610483600480360381019061047e9190612e80565b611586565b005b60008073ffffffffffffffffffffffffffffffffffffffff168373ffffffffffffffffffffffffffffffffffffffff1614156104f6576040517f08c379a00000000000000000000000000000000000000000000000000000000081526004016104ed90613a24565b60405180910390fd5b6001600083815260200190815260200160002060008473ffffffffffffffffffffffffffffffffffffffff1673ffffffffffffffffffffffffffffffffffffffff16815260200190815260200160002054905092915050565b60007fd9b67a26000000000000000000000000000000000000000000000000000000007bffffffffffffffffffffffffffffffffffffffffffffffffffffffff1916827bffffffffffffffffffffffffffffffffffffffffffffffffffffffff1916148061061a57507f0e89341c000000000000000000000000000000000000000000000000000000007bffffffffffffffffffffffffffffffffffffffffffffffffffffffff1916827bffffffffffffffffffffffffffffffffffffffffffffffffffffffff1916145b8061062a57506106298261167e565b5b9050919050565b6106396116e8565b73ffffffffffffffffffffffffffffffffffffffff16610657610d40565b73ffffffffffffffffffffffffffffffffffffffff16146106ad576040517f08c379a00000000000000000000000000000000000000000000000000000000081526004016106a490613b04565b60405180910390fd5b6106b5610b5c565b156106f5576040517f08c379a00000000000000000000000000000000000000000000000000000000081526004016106ec90613a84565b60405180910390fd5b6106fe816116f0565b50565b60606004600083815260200190815260200160002080548060200260200160405190810160405280929190818152602001828054801561079657602002820191906000526020600020905b8160009054906101000a900473ffffffffffffffffffffffffffffffffffffffff1673ffffffffffffffffffffffffffffffffffffffff168152602001906001019080831161074c575b50505050509050919050565b6060600380546107b190613eb0565b80601f01602080910402602001604051908101604052809291908181526020018280546107dd90613eb0565b801561082a5780601f106107ff5761010080835404028352916020019161082a565b820191906000526020600020905b81548152906001019060200180831161080d57829003601f168201915b50505050509050919050565b6004602052816000526040600020818154811061085257600080fd5b906000526020600020016000915091509054906101000a900473ffffffffffffffffffffffffffffffffffffffff1681565b61088c6116e8565b73ffffffffffffffffffffffffffffffffffffffff168573ffffffffffffffffffffffffffffffffffffffff1614806108d257506108d1856108cc6116e8565b611451565b5b610911576040517f08c379a000000000000000000000000000000000000000000000000000000000815260040161090890613ac4565b60405180910390fd5b61091e858585858561170a565b5050505050565b61092d6116e8565b73ffffffffffffffffffffffffffffffffffffffff1661094b610d40565b73ffffffffffffffffffffffffffffffffffffffff16146109a1576040517f08c379a000000000000000000000000000000000000000000000000000000000815260040161099890613b04565b60405180910390fd5b6109a9611a7b565b565b606081518351146109f1576040517f08c379a00000000000000000000000000000000000000000000000000000000081526004016109e890613b44565b60405180910390fd5b6000835167ffffffffffffffff811115610a34577f4e487b7100000000000000000000000000000000000000000000000000000000600052604160045260246000fd5b604051908082528060200260200182016040528015610a625781602001602082028036833780820191505090505b50905060005b8451811015610b5157610afb858281518110610aad577f4e487b7100000000000000000000000000000000000000000000000000000000600052603260045260246000fd5b6020026020010151858381518110610aee577f4e487b7100000000000000000000000000000000000000000000000000000000600052603260045260246000fd5b6020026020010151610485565b828281518110610b34577f4e487b7100000000000000000000000000000000000000000000000000000000600052603260045260246000fd5b60200260200101818152505080610b4a90613f13565b9050610a68565b508091505092915050565b60008060169054906101000a900460ff16905090565b610b7a6116e8565b73ffffffffffffffffffffffffffffffffffffffff16610b98610d40565b73ffffffffffffffffffffffffffffffffffffffff1614610bee576040517f08c379a0000000000000000000000000000000000000000000000000000000008152600401610be590613b04565b60405180910390fd5b610bf86000611b1c565b565b610c026116e8565b73ffffffffffffffffffffffffffffffffffffffff16610c20610d40565b73ffffffffffffffffffffffffffffffffffffffff1614610c76576040517f08c379a0000000000000000000000000000000000000000000000000000000008152600401610c6d90613b04565b60405180910390fd5b610c7e611be1565b565b610c88610b5c565b15610cc8576040517f08c379a0000000000000000000000000000000000000000000000000000000008152600401610cbf90613a84565b60405180910390fd5b60046000838152602001908152602001600020819080600181540180825580915050600190039060005260206000200160009091909190916101000a81548173ffffffffffffffffffffffffffffffffffffffff021916908373ffffffffffffffffffffffffffffffffffffffff1602179055505050565b60008060029054906101000a900473ffffffffffffffffffffffffffffffffffffffff16905090565b610d71610b5c565b15610db1576040517f08c379a0000000000000000000000000000000000000000000000000000000008152600401610da890613a84565b60405180910390fd5b610dbc838383611c84565b505050565b60065481565b610dcf6116e8565b73ffffffffffffffffffffffffffffffffffffffff16610ded610d40565b73ffffffffffffffffffffffffffffffffffffffff1614610e43576040517f08c379a0000000000000000000000000000000000000000000000000000000008152600401610e3a90613b04565b60405180910390fd5b610e4b610b5c565b610e8a576040517f08c379a0000000000000000000000000000000000000000000000000000000008152600401610e8190613a04565b60405180910390fd5b8060068190555050565b610ea6610e9f6116e8565b8383611e22565b5050565b610eb2612a44565b600560008381526020019081526020016000206040518060c0016040529081600082018054610ee090613eb0565b80601f0160208091040260200160405190810160405280929190818152602001828054610f0c90613eb0565b8015610f595780601f10610f2e57610100808354040283529160200191610f59565b820191906000526020600020905b815481529060010190602001808311610f3c57829003601f168201915b50505050508152602001600182018054610f7290613eb0565b80601f0160208091040260200160405190810160405280929190818152602001828054610f9e90613eb0565b8015610feb5780601f10610fc057610100808354040283529160200191610feb565b820191906000526020600020905b815481529060010190602001808311610fce57829003601f168201915b5050505050815260200160028201805461100490613eb0565b80601f016020809104026020016040519081016040528092919081815260200182805461103090613eb0565b801561107d5780601f106110525761010080835404028352916020019161107d565b820191906000526020600020905b81548152906001019060200180831161106057829003601f168201915b5050505050815260200160038201805461109690613eb0565b80601f01602080910402602001604051908101604052809291908181526020018280546110c290613eb0565b801561110f5780601f106110e45761010080835404028352916020019161110f565b820191906000526020600020905b8154815290600101906020018083116110f257829003601f168201915b50505050508152602001600482015481526020016005820160009054906101000a900473ffffffffffffffffffffffffffffffffffffffff1673ffffffffffffffffffffffffffffffffffffffff1673ffffffffffffffffffffffffffffffffffffffff16815250509050919050565b611187610b5c565b156111c7576040517f08c379a00000000000000000000000000000000000000000000000000000000081526004016111be90613a84565b60405180910390fd5b6111d18282611f8f565b5050565b60056020528060005260406000206000915090508060000180546111f890613eb0565b80601f016020809104026020016040519081016040528092919081815260200182805461122490613eb0565b80156112715780601f1061124657610100808354040283529160200191611271565b820191906000526020600020905b81548152906001019060200180831161125457829003601f168201915b50505050509080600101805461128690613eb0565b80601f01602080910402602001604051908101604052809291908181526020018280546112b290613eb0565b80156112ff5780601f106112d4576101008083540402835291602001916112ff565b820191906000526020600020905b8154815290600101906020018083116112e257829003601f168201915b50505050509080600201805461131490613eb0565b80601f016020809104026020016040519081016040528092919081815260200182805461134090613eb0565b801561138d5780601f106113625761010080835404028352916020019161138d565b820191906000526020600020905b81548152906001019060200180831161137057829003601f168201915b5050505050908060030180546113a290613eb0565b80601f01602080910402602001604051908101604052809291908181526020018280546113ce90613eb0565b801561141b5780601f106113f05761010080835404028352916020019161141b565b820191906000526020600020905b8154815290600101906020018083116113fe57829003601f168201915b5050505050908060040154908060050160009054906101000a900473ffffffffffffffffffffffffffffffffffffffff16905086565b6000600260008473ffffffffffffffffffffffffffffffffffffffff1673ffffffffffffffffffffffffffffffffffffffff16815260200190815260200160002060008373ffffffffffffffffffffffffffffffffffffffff1673ffffffffffffffffffffffffffffffffffffffff16815260200190815260200160002060009054906101000a900460ff16905092915050565b6114ed6116e8565b73ffffffffffffffffffffffffffffffffffffffff168573ffffffffffffffffffffffffffffffffffffffff16148061153357506115328561152d6116e8565b611451565b5b611572576040517f08c379a000000000000000000000000000000000000000000000000000000000815260040161156990613a64565b60405180910390fd5b61157f858585858561210c565b5050505050565b61158e6116e8565b73ffffffffffffffffffffffffffffffffffffffff166115ac610d40565b73ffffffffffffffffffffffffffffffffffffffff1614611602576040517f08c379a00000000000000000000000000000000000000000000000000000000081526004016115f990613b04565b60405180910390fd5b600073ffffffffffffffffffffffffffffffffffffffff168173ffffffffffffffffffffffffffffffffffffffff161415611672576040517f08c379a000000000000000000000000000000000000000000000000000000000815260040161166990613a44565b60405180910390fd5b61167b81611b1c565b50565b60007f01ffc9a7000000000000000000000000000000000000000000000000000000007bffffffffffffffffffffffffffffffffffffffffffffffffffffffff1916827bffffffffffffffffffffffffffffffffffffffffffffffffffffffff1916149050919050565b600033905090565b8060039080519060200190611706929190612a90565b5050565b815183511461174e576040517f08c379a000000000000000000000000000000000000000000000000000000000815260040161174590613b64565b60405180910390fd5b600073ffffffffffffffffffffffffffffffffffffffff168473ffffffffffffffffffffffffffffffffffffffff1614156117be576040517f08c379a00000000000000000000000000000000000000000000000000000000081526004016117b590613aa4565b60405180910390fd5b60006117c86116e8565b90506117d88187878787876123ab565b60005b84518110156119d857600085828151811061181f577f4e487b7100000000000000000000000000000000000000000000000000000000600052603260045260246000fd5b602002602001015190506000858381518110611864577f4e487b7100000000000000000000000000000000000000000000000000000000600052603260045260246000fd5b6020026020010151905060006001600084815260200190815260200160002060008b73ffffffffffffffffffffffffffffffffffffffff1673ffffffffffffffffffffffffffffffffffffffff16815260200190815260200160002054905081811015611906576040517f08c379a00000000000000000000000000000000000000000000000000000000081526004016118fd90613ae4565b60405180910390fd5b8181036001600085815260200190815260200160002060008c73ffffffffffffffffffffffffffffffffffffffff1673ffffffffffffffffffffffffffffffffffffffff16815260200190815260200160002081905550816001600085815260200190815260200160002060008b73ffffffffffffffffffffffffffffffffffffffff1673ffffffffffffffffffffffffffffffffffffffff16815260200190815260200160002060008282546119bd9190613da4565b92505081905550505050806119d190613f13565b90506117db565b508473ffffffffffffffffffffffffffffffffffffffff168673ffffffffffffffffffffffffffffffffffffffff168273ffffffffffffffffffffffffffffffffffffffff167f4a39dc06d4c0dbc64b70af90fd698a233a518aa5d07e595d983b8c0526c8f7fb8787604051611a4f9291906138d3565b60405180910390a4611a658187878787876123b3565b611a738187878787876123bb565b505050505050565b611a83610b5c565b611ac2576040517f08c379a0000000000000000000000000000000000000000000000000000000008152600401611ab990613a04565b60405180910390fd5b60008060166101000a81548160ff0219169083151502179055507f5db9ee0a495bf2e6ff9c91a7834c1ba4fdd244a5e8aa4e537bd38aeae4b073aa611b056116e8565b604051611b12919061377b565b60405180910390a1565b60008060029054906101000a900473ffffffffffffffffffffffffffffffffffffffff16905081600060026101000a81548173ffffffffffffffffffffffffffffffffffffffff021916908373ffffffffffffffffffffffffffffffffffffffff1602179055508173ffffffffffffffffffffffffffffffffffffffff168173ffffffffffffffffffffffffffffffffffffffff167f8be0079c531659141344cd1fd0a4f28419497f9722a3daafe3b4186f6b6457e060405160405180910390a35050565b611be9610b5c565b15611c29576040517f08c379a0000000000000000000000000000000000000000000000000000000008152600401611c2090613a84565b60405180910390fd5b6001600060166101000a81548160ff0219169083151502179055507f62e78cea01bee320cd4e420270b5ea74000d11b0c9f74754ebdbfc544b05a258611c6d6116e8565b604051611c7a919061377b565b60405180910390a1565b600060046000858152602001908152602001600020805480602002602001604051908101604052809291908181526020018280548015611d1957602002820191906000526020600020905b8160009054906101000a900473ffffffffffffffffffffffffffffffffffffffff1673ffffffffffffffffffffffffffffffffffffffff1681526020019060010190808311611ccf575b505050505090506000805b8251811015611db957828181518110611d66577f4e487b7100000000000000000000000000000000000000000000000000000000600052603260045260246000fd5b602002602001015173ffffffffffffffffffffffffffffffffffffffff168573ffffffffffffffffffffffffffffffffffffffff161415611da657600191505b8080611db190613f13565b915050611d24565b50611dd684866001604051806020016040528060008152506125a2565b611de08385612754565b7f94485cae9357e54ea6c430f602151e81193f1ebc54b372d332b27c4c3bcfb86c848487604051611e1393929190613858565b60405180910390a15050505050565b8173ffffffffffffffffffffffffffffffffffffffff168373ffffffffffffffffffffffffffffffffffffffff161415611e91576040517f08c379a0000000000000000000000000000000000000000000000000000000008152600401611e8890613b24565b60405180910390fd5b80600260008573ffffffffffffffffffffffffffffffffffffffff1673ffffffffffffffffffffffffffffffffffffffff16815260200190815260200160002060008473ffffffffffffffffffffffffffffffffffffffff1673ffffffffffffffffffffffffffffffffffffffff16815260200190815260200160002060006101000a81548160ff0219169083151502179055508173ffffffffffffffffffffffffffffffffffffffff168373ffffffffffffffffffffffffffffffffffffffff167f17307eab39ab6107e8899845ad3d59bd9653f200f220920489ca2b5937696c3183604051611f82919061390a565b60405180910390a3505050565b611f97612a44565b828160a0019073ffffffffffffffffffffffffffffffffffffffff16908173ffffffffffffffffffffffffffffffffffffffff1681525050816000015181600001819052508160400151816040018190525081606001518160600181905250816080015181608001818152505081602001518160200181905250806005600060065481526020019081526020016000206000820151816000019080519060200190612043929190612a90565b506020820151816001019080519060200190612060929190612a90565b50604082015181600201908051906020019061207d929190612a90565b50606082015181600301908051906020019061209a929190612a90565b506080820151816004015560a08201518160050160006101000a81548173ffffffffffffffffffffffffffffffffffffffff021916908373ffffffffffffffffffffffffffffffffffffffff1602179055509050506006600081548092919061210290613f13565b9190505550505050565b600073ffffffffffffffffffffffffffffffffffffffff168473ffffffffffffffffffffffffffffffffffffffff16141561217c576040517f08c379a000000000000000000000000000000000000000000000000000000000815260040161217390613aa4565b60405180910390fd5b60006121866116e8565b9050600061219385612774565b905060006121a085612774565b90506121b08389898585896123ab565b60006001600088815260200190815260200160002060008a73ffffffffffffffffffffffffffffffffffffffff1673ffffffffffffffffffffffffffffffffffffffff16815260200190815260200160002054905085811015612248576040517f08c379a000000000000000000000000000000000000000000000000000000000815260040161223f90613ae4565b60405180910390fd5b8581036001600089815260200190815260200160002060008b73ffffffffffffffffffffffffffffffffffffffff1673ffffffffffffffffffffffffffffffffffffffff16815260200190815260200160002081905550856001600089815260200190815260200160002060008a73ffffffffffffffffffffffffffffffffffffffff1673ffffffffffffffffffffffffffffffffffffffff16815260200190815260200160002060008282546122ff9190613da4565b925050819055508773ffffffffffffffffffffffffffffffffffffffff168973ffffffffffffffffffffffffffffffffffffffff168573ffffffffffffffffffffffffffffffffffffffff167fc3d58168c5ae7397731d063d5bbf3d657854427343f4c083240f7aacaa2d0f628a8a60405161237c929190613be1565b60405180910390a4612392848a8a86868a6123b3565b6123a0848a8a8a8a8a61283a565b505050505050505050565b505050505050565b505050505050565b6123da8473ffffffffffffffffffffffffffffffffffffffff16612a21565b1561259a578373ffffffffffffffffffffffffffffffffffffffff1663bc197c8187878686866040518663ffffffff1660e01b8152600401612420959493929190613796565b602060405180830381600087803b15801561243a57600080fd5b505af192505050801561246b57506040513d601f19601f820116820180604052508101906124689190613194565b60015b61251157612477613fe9565b806308c379a014156124d4575061248c614458565b8061249757506124d6565b806040517f08c379a00000000000000000000000000000000000000000000000000000000081526004016124cb9190613925565b60405180910390fd5b505b6040517f08c379a0000000000000000000000000000000000000000000000000000000008152600401612508906139c4565b60405180910390fd5b63bc197c8160e01b7bffffffffffffffffffffffffffffffffffffffffffffffffffffffff1916817bffffffffffffffffffffffffffffffffffffffffffffffffffffffff191614612598576040517f08c379a000000000000000000000000000000000000000000000000000000000815260040161258f906139e4565b60405180910390fd5b505b505050505050565b600073ffffffffffffffffffffffffffffffffffffffff168473ffffffffffffffffffffffffffffffffffffffff161415612612576040517f08c379a000000000000000000000000000000000000000000000000000000000815260040161260990613b84565b60405180910390fd5b600061261c6116e8565b9050600061262985612774565b9050600061263685612774565b9050612647836000898585896123ab565b846001600088815260200190815260200160002060008973ffffffffffffffffffffffffffffffffffffffff1673ffffffffffffffffffffffffffffffffffffffff16815260200190815260200160002060008282546126a79190613da4565b925050819055508673ffffffffffffffffffffffffffffffffffffffff16600073ffffffffffffffffffffffffffffffffffffffff168473ffffffffffffffffffffffffffffffffffffffff167fc3d58168c5ae7397731d063d5bbf3d657854427343f4c083240f7aacaa2d0f628989604051612725929190613be1565b60405180910390a461273c836000898585896123b3565b61274b8360008989898961283a565b50505050505050565b61277081600084604051806020016040528060008152506125a2565b5050565b60606000600167ffffffffffffffff8111156127b9577f4e487b7100000000000000000000000000000000000000000000000000000000600052604160045260246000fd5b6040519080825280602002602001820160405280156127e75781602001602082028036833780820191505090505b5090508281600081518110612825577f4e487b7100000000000000000000000000000000000000000000000000000000600052603260045260246000fd5b60200260200101818152505080915050919050565b6128598473ffffffffffffffffffffffffffffffffffffffff16612a21565b15612a19578373ffffffffffffffffffffffffffffffffffffffff1663f23a6e6187878686866040518663ffffffff1660e01b815260040161289f9594939291906137fe565b602060405180830381600087803b1580156128b957600080fd5b505af19250505080156128ea57506040513d601f19601f820116820180604052508101906128e79190613194565b60015b612990576128f6613fe9565b806308c379a01415612953575061290b614458565b806129165750612955565b806040517f08c379a000000000000000000000000000000000000000000000000000000000815260040161294a9190613925565b60405180910390fd5b505b6040517f08c379a0000000000000000000000000000000000000000000000000000000008152600401612987906139c4565b60405180910390fd5b63f23a6e6160e01b7bffffffffffffffffffffffffffffffffffffffffffffffffffffffff1916817bffffffffffffffffffffffffffffffffffffffffffffffffffffffff191614612a17576040517f08c379a0000000000000000000000000000000000000000000000000000000008152600401612a0e906139e4565b60405180910390fd5b505b505050505050565b6000808273ffffffffffffffffffffffffffffffffffffffff163b119050919050565b6040518060c001604052806060815260200160608152602001606081526020016060815260200160008152602001600073ffffffffffffffffffffffffffffffffffffffff1681525090565b828054612a9c90613eb0565b90600052602060002090601f016020900481019282612abe5760008555612b05565b82601f10612ad757805160ff1916838001178555612b05565b82800160010185558215612b05579182015b82811115612b04578251825591602001919060010190612ae9565b5b509050612b129190612b16565b5090565b5b80821115612b2f576000816000905550600101612b17565b5090565b6000612b46612b4184613c2f565b613c0a565b90508083825260208201905082856020860282011115612b6557600080fd5b60005b85811015612b955781612b7b8882612c87565b845260208401935060208301925050600181019050612b68565b5050509392505050565b6000612bb2612bad84613c5b565b613c0a565b90508083825260208201905082856020860282011115612bd157600080fd5b60005b85811015612c015781612be78882612e6b565b845260208401935060208301925050600181019050612bd4565b5050509392505050565b6000612c1e612c1984613c87565b613c0a565b905082815260208101848484011115612c3657600080fd5b612c41848285613e6e565b509392505050565b6000612c5c612c5784613cb8565b613c0a565b905082815260208101848484011115612c7457600080fd5b612c7f848285613e6e565b509392505050565b600081359050612c96816144ee565b92915050565b600082601f830112612cad57600080fd5b8135612cbd848260208601612b33565b91505092915050565b600082601f830112612cd757600080fd5b8135612ce7848260208601612b9f565b91505092915050565b600081359050612cff81614505565b92915050565b600081359050612d148161451c565b92915050565b600081519050612d298161451c565b92915050565b600082601f830112612d4057600080fd5b8135612d50848260208601612c0b565b91505092915050565b600082601f830112612d6a57600080fd5b8135612d7a848260208601612c49565b91505092915050565b600060a08284031215612d9557600080fd5b612d9f60a0613c0a565b9050600082013567ffffffffffffffff811115612dbb57600080fd5b612dc784828501612d59565b600083015250602082013567ffffffffffffffff811115612de757600080fd5b612df384828501612d59565b602083015250604082013567ffffffffffffffff811115612e1357600080fd5b612e1f84828501612d59565b604083015250606082013567ffffffffffffffff811115612e3f57600080fd5b612e4b84828501612d59565b6060830152506080612e5f84828501612e6b565b60808301525092915050565b600081359050612e7a81614533565b92915050565b600060208284031215612e9257600080fd5b6000612ea084828501612c87565b91505092915050565b60008060408385031215612ebc57600080fd5b6000612eca85828601612c87565b9250506020612edb85828601612c87565b9150509250929050565b600080600080600060a08688031215612efd57600080fd5b6000612f0b88828901612c87565b9550506020612f1c88828901612c87565b945050604086013567ffffffffffffffff811115612f3957600080fd5b612f4588828901612cc6565b935050606086013567ffffffffffffffff811115612f6257600080fd5b612f6e88828901612cc6565b925050608086013567ffffffffffffffff811115612f8b57600080fd5b612f9788828901612d2f565b9150509295509295909350565b600080600080600060a08688031215612fbc57600080fd5b6000612fca88828901612c87565b9550506020612fdb88828901612c87565b9450506040612fec88828901612e6b565b9350506060612ffd88828901612e6b565b925050608086013567ffffffffffffffff81111561301a57600080fd5b61302688828901612d2f565b9150509295509295909350565b6000806040838503121561304657600080fd5b600061305485828601612c87565b925050602061306585828601612cf0565b9150509250929050565b6000806040838503121561308257600080fd5b600061309085828601612c87565b925050602083013567ffffffffffffffff8111156130ad57600080fd5b6130b985828601612d83565b9150509250929050565b600080604083850312156130d657600080fd5b60006130e485828601612c87565b92505060206130f585828601612e6b565b9150509250929050565b6000806040838503121561311257600080fd5b600083013567ffffffffffffffff81111561312c57600080fd5b61313885828601612c9c565b925050602083013567ffffffffffffffff81111561315557600080fd5b61316185828601612cc6565b9150509250929050565b60006020828403121561317d57600080fd5b600061318b84828501612d05565b91505092915050565b6000602082840312156131a657600080fd5b60006131b484828501612d1a565b91505092915050565b6000602082840312156131cf57600080fd5b600082013567ffffffffffffffff8111156131e957600080fd5b6131f584828501612d59565b91505092915050565b60006020828403121561321057600080fd5b600061321e84828501612e6b565b91505092915050565b6000806040838503121561323a57600080fd5b600061324885828601612e6b565b925050602061325985828601612c87565b9150509250929050565b60008060006060848603121561327857600080fd5b600061328686828701612e6b565b935050602061329786828701612c87565b92505060406132a886828701612e6b565b9150509250925092565b600080604083850312156132c557600080fd5b60006132d385828601612e6b565b92505060206132e485828601612e6b565b9150509250929050565b60006132fa838361331e565b60208301905092915050565b6000613312838361375d565b60208301905092915050565b61332781613dfa565b82525050565b61333681613dfa565b82525050565b600061334782613d09565b6133518185613d4f565b935061335c83613ce9565b8060005b8381101561338d57815161337488826132ee565b975061337f83613d35565b925050600181019050613360565b5085935050505092915050565b60006133a582613d14565b6133af8185613d60565b93506133ba83613cf9565b8060005b838110156133eb5781516133d28882613306565b97506133dd83613d42565b9250506001810190506133be565b5085935050505092915050565b61340181613e0c565b82525050565b600061341282613d1f565b61341c8185613d71565b935061342c818560208601613e7d565b6134358161400b565b840191505092915050565b600061344b82613d2a565b6134558185613d82565b9350613465818560208601613e7d565b61346e8161400b565b840191505092915050565b600061348482613d2a565b61348e8185613d93565b935061349e818560208601613e7d565b6134a78161400b565b840191505092915050565b60006134bf603483613d93565b91506134ca82614029565b604082019050919050565b60006134e2602883613d93565b91506134ed82614078565b604082019050919050565b6000613505601483613d93565b9150613510826140c7565b602082019050919050565b6000613528602b83613d93565b9150613533826140f0565b604082019050919050565b600061354b602683613d93565b91506135568261413f565b604082019050919050565b600061356e602983613d93565b91506135798261418e565b604082019050919050565b6000613591601083613d93565b915061359c826141dd565b602082019050919050565b60006135b4602583613d93565b91506135bf82614206565b604082019050919050565b60006135d7603283613d93565b91506135e282614255565b604082019050919050565b60006135fa602a83613d93565b9150613605826142a4565b604082019050919050565b600061361d602083613d93565b9150613628826142f3565b602082019050919050565b6000613640602983613d93565b915061364b8261431c565b604082019050919050565b6000613663602983613d93565b915061366e8261436b565b604082019050919050565b6000613686602883613d93565b9150613691826143ba565b604082019050919050565b60006136a9602183613d93565b91506136b482614409565b604082019050919050565b600060c08301600083015184820360008601526136dc8282613440565b915050602083015184820360208601526136f68282613440565b915050604083015184820360408601526137108282613440565b9150506060830151848203606086015261372a8282613440565b915050608083015161373f608086018261375d565b5060a083015161375260a086018261331e565b508091505092915050565b61376681613e64565b82525050565b61377581613e64565b82525050565b6000602082019050613790600083018461332d565b92915050565b600060a0820190506137ab600083018861332d565b6137b8602083018761332d565b81810360408301526137ca818661339a565b905081810360608301526137de818561339a565b905081810360808301526137f28184613407565b90509695505050505050565b600060a082019050613813600083018861332d565b613820602083018761332d565b61382d604083018661376c565b61383a606083018561376c565b818103608083015261384c8184613407565b90509695505050505050565b600060608201905061386d600083018661332d565b61387a602083018561376c565b613887604083018461376c565b949350505050565b600060208201905081810360008301526138a9818461333c565b905092915050565b600060208201905081810360008301526138cb818461339a565b905092915050565b600060408201905081810360008301526138ed818561339a565b90508181036020830152613901818461339a565b90509392505050565b600060208201905061391f60008301846133f8565b92915050565b6000602082019050818103600083015261393f8184613479565b905092915050565b600060c08201905081810360008301526139618189613479565b905081810360208301526139758188613479565b905081810360408301526139898187613479565b9050818103606083015261399d8186613479565b90506139ac608083018561376c565b6139b960a083018461332d565b979650505050505050565b600060208201905081810360008301526139dd816134b2565b9050919050565b600060208201905081810360008301526139fd816134d5565b9050919050565b60006020820190508181036000830152613a1d816134f8565b9050919050565b60006020820190508181036000830152613a3d8161351b565b9050919050565b60006020820190508181036000830152613a5d8161353e565b9050919050565b60006020820190508181036000830152613a7d81613561565b9050919050565b60006020820190508181036000830152613a9d81613584565b9050919050565b60006020820190508181036000830152613abd816135a7565b9050919050565b60006020820190508181036000830152613add816135ca565b9050919050565b60006020820190508181036000830152613afd816135ed565b9050919050565b60006020820190508181036000830152613b1d81613610565b9050919050565b60006020820190508181036000830152613b3d81613633565b9050919050565b60006020820190508181036000830152613b5d81613656565b9050919050565b60006020820190508181036000830152613b7d81613679565b9050919050565b60006020820190508181036000830152613b9d8161369c565b9050919050565b60006020820190508181036000830152613bbe81846136bf565b905092915050565b6000602082019050613bdb600083018461376c565b92915050565b6000604082019050613bf6600083018561376c565b613c03602083018461376c565b9392505050565b6000613c14613c25565b9050613c208282613ee2565b919050565b6000604051905090565b600067ffffffffffffffff821115613c4a57613c49613fba565b5b602082029050602081019050919050565b600067ffffffffffffffff821115613c7657613c75613fba565b5b602082029050602081019050919050565b600067ffffffffffffffff821115613ca257613ca1613fba565b5b613cab8261400b565b9050602081019050919050565b600067ffffffffffffffff821115613cd357613cd2613fba565b5b613cdc8261400b565b9050602081019050919050565b6000819050602082019050919050565b6000819050602082019050919050565b600081519050919050565b600081519050919050565b600081519050919050565b600081519050919050565b6000602082019050919050565b6000602082019050919050565b600082825260208201905092915050565b600082825260208201905092915050565b600082825260208201905092915050565b600082825260208201905092915050565b600082825260208201905092915050565b6000613daf82613e64565b9150613dba83613e64565b9250827fffffffffffffffffffffffffffffffffffffffffffffffffffffffffffffffff03821115613def57613dee613f5c565b5b828201905092915050565b6000613e0582613e44565b9050919050565b60008115159050919050565b60007fffffffff0000000000000000000000000000000000000000000000000000000082169050919050565b600073ffffffffffffffffffffffffffffffffffffffff82169050919050565b6000819050919050565b82818337600083830152505050565b60005b83811015613e9b578082015181840152602081019050613e80565b83811115613eaa576000848401525b50505050565b60006002820490506001821680613ec857607f821691505b60208210811415613edc57613edb613f8b565b5b50919050565b613eeb8261400b565b810181811067ffffffffffffffff82111715613f0a57613f09613fba565b5b80604052505050565b6000613f1e82613e64565b91507fffffffffffffffffffffffffffffffffffffffffffffffffffffffffffffffff821415613f5157613f50613f5c565b5b600182019050919050565b7f4e487b7100000000000000000000000000000000000000000000000000000000600052601160045260246000fd5b7f4e487b7100000000000000000000000000000000000000000000000000000000600052602260045260246000fd5b7f4e487b7100000000000000000000000000000000000000000000000000000000600052604160045260246000fd5b600060033d11156140085760046000803e61400560005161401c565b90505b90565b6000601f19601f8301169050919050565b60008160e01c9050919050565b7f455243313135353a207472616e7366657220746f206e6f6e204552433131353560008201527f526563656976657220696d706c656d656e746572000000000000000000000000602082015250565b7f455243313135353a204552433131353552656365697665722072656a6563746560008201527f6420746f6b656e73000000000000000000000000000000000000000000000000602082015250565b7f5061757361626c653a206e6f7420706175736564000000000000000000000000600082015250565b7f455243313135353a2062616c616e636520717565727920666f7220746865207a60008201527f65726f2061646472657373000000000000000000000000000000000000000000602082015250565b7f4f776e61626c653a206e6577206f776e657220697320746865207a65726f206160008201527f6464726573730000000000000000000000000000000000000000000000000000602082015250565b7f455243313135353a2063616c6c6572206973206e6f74206f776e6572206e6f7260008201527f20617070726f7665640000000000000000000000000000000000000000000000602082015250565b7f5061757361626c653a2070617573656400000000000000000000000000000000600082015250565b7f455243313135353a207472616e7366657220746f20746865207a65726f20616460008201527f6472657373000000000000000000000000000000000000000000000000000000602082015250565b7f455243313135353a207472616e736665722063616c6c6572206973206e6f742060008201527f6f776e6572206e6f7220617070726f7665640000000000000000000000000000602082015250565b7f455243313135353a20696e73756666696369656e742062616c616e636520666f60008201527f72207472616e7366657200000000000000000000000000000000000000000000602082015250565b7f4f776e61626c653a2063616c6c6572206973206e6f7420746865206f776e6572600082015250565b7f455243313135353a2073657474696e6720617070726f76616c2073746174757360008201527f20666f722073656c660000000000000000000000000000000000000000000000602082015250565b7f455243313135353a206163636f756e747320616e6420696473206c656e67746860008201527f206d69736d617463680000000000000000000000000000000000000000000000602082015250565b7f455243313135353a2069647320616e6420616d6f756e7473206c656e6774682060008201527f6d69736d61746368000000000000000000000000000000000000000000000000602082015250565b7f455243313135353a206d696e7420746f20746865207a65726f2061646472657360008201527f7300000000000000000000000000000000000000000000000000000000000000602082015250565b600060443d1015614468576144eb565b614470613c25565b60043d036004823e80513d602482011167ffffffffffffffff821117156144985750506144eb565b808201805167ffffffffffffffff8111156144b657505050506144eb565b80602083010160043d0385018111156144d35750505050506144eb565b6144e282602001850186613ee2565b82955050505050505b90565b6144f781613dfa565b811461450257600080fd5b50565b61450e81613e0c565b811461451957600080fd5b50565b61452581613e18565b811461453057600080fd5b50565b61453c81613e64565b811461454757600080fd5b5056fea26469706673582212206a6e07cc18dc14e2b66f6edee57a490796974ebf9366689d986341a70e829c2464736f6c63430008040033",
  "linkReferences": {},
  "deployedLinkReferences": {}
}